{"abi":[{"type":"constructor","inputs":[],"stateMutability":"nonpayable"},{"type":"function","name":"ADMIN_ROLE","inputs":[],"outputs":[{"name":"","type":"bytes32","internalType":"bytes32"}],"stateMutability":"view"},{"type":"function","name":"DEFAULT_ADMIN_ROLE","inputs":[],"outputs":[{"name":"","type":"bytes32","internalType":"bytes32"}],"stateMutability":"view"},{"type":"function","name":"EDUCATOR_ROLE","inputs":[],"outputs":[{"name":"","type":"bytes32","internalType":"bytes32"}],"stateMutability":"view"},{"type":"function","name":"VERIFIER_ROLE","inputs":[],"outputs":[{"name":"","type":"bytes32","internalType":"bytes32"}],"stateMutability":"view"},{"type":"function","name":"assignEducatorRole","inputs":[{"name":"account","type":"address","internalType":"address"}],"outputs":[],"stateMutability":"nonpayable"},{"type":"function","name":"assignVerifierRole","inputs":[{"name":"account","type":"address","internalType":"address"}],"outputs":[],"stateMutability":"nonpayable"},{"type":"function","name":"getRoleAdmin","inputs":[{"name":"role","type":"bytes32","internalType":"bytes32"}],"outputs":[{"name":"","type":"bytes32","internalType":"bytes32"}],"stateMutability":"view"},{"type":"function","name":"grantRole","inputs":[{"name":"role","type":"bytes32","internalType":"bytes32"},{"name":"account","type":"address","internalType":"address"}],"outputs":[],"stateMutability":"nonpayable"},{"type":"function","name":"hasRole","inputs":[{"name":"role","type":"bytes32","internalType":"bytes32"},{"name":"account","type":"address","internalType":"address"}],"outputs":[{"name":"","type":"bool","internalType":"bool"}],"stateMutability":"view"},{"type":"function","name":"isAdmin","inputs":[{"name":"account","type":"address","internalType":"address"}],"outputs":[{"name":"","type":"bool","internalType":"bool"}],"stateMutability":"view"},{"type":"function","name":"isEducator","inputs":[{"name":"account","type":"address","internalType":"address"}],"outputs":[{"name":"","type":"bool","internalType":"bool"}],"stateMutability":"view"},{"type":"function","name":"isVerifier","inputs":[{"name":"account","type":"address","internalType":"address"}],"outputs":[{"name":"","type":"bool","internalType":"bool"}],"stateMutability":"view"},{"type":"function","name":"pause","inputs":[],"outputs":[],"stateMutability":"nonpayable"},{"type":"function","name":"paused","inputs":[],"outputs":[{"name":"","type":"bool","internalType":"bool"}],"stateMutability":"view"},{"type":"function","name":"renounceRole","inputs":[{"name":"role","type":"bytes32","internalType":"bytes32"},{"name":"callerConfirmation","type":"address","internalType":"address"}],"outputs":[],"stateMutability":"nonpayable"},{"type":"function","name":"revokeEducatorRole","inputs":[{"name":"account","type":"address","internalType":"address"}],"outputs":[],"stateMutability":"nonpayable"},{"type":"function","name":"revokeRole","inputs":[{"name":"role","type":"bytes32","internalType":"bytes32"},{"name":"account","type":"address","internalType":"address"}],"outputs":[],"stateMutability":"nonpayable"},{"type":"function","name":"revokeVerifierRole","inputs":[{"name":"account","type":"address","internalType":"address"}],"outputs":[],"stateMutability":"nonpayable"},{"type":"function","name":"supportsInterface","inputs":[{"name":"interfaceId","type":"bytes4","internalType":"bytes4"}],"outputs":[{"name":"","type":"bool","internalType":"bool"}],"stateMutability":"view"},{"type":"function","name":"unpause","inputs":[],"outputs":[],"stateMutability":"nonpayable"},{"type":"event","name":"Paused","inputs":[{"name":"account","type":"address","indexed":false,"internalType":"address"}],"anonymous":false},{"type":"event","name":"RoleAdminChanged","inputs":[{"name":"role","type":"bytes32","indexed":true,"internalType":"bytes32"},{"name":"previousAdminRole","type":"bytes32","indexed":true,"internalType":"bytes32"},{"name":"newAdminRole","type":"bytes32","indexed":true,"internalType":"bytes32"}],"anonymous":false},{"type":"event","name":"RoleAssigned","inputs":[{"name":"role","type":"bytes32","indexed":true,"internalType":"bytes32"},{"name":"account","type":"address","indexed":true,"internalType":"address"},{"name":"assigner","type":"address","indexed":true,"internalType":"address"}],"anonymous":false},{"type":"event","name":"RoleGranted","inputs":[{"name":"role","type":"bytes32","indexed":true,"internalType":"bytes32"},{"name":"account","type":"address","indexed":true,"internalType":"address"},{"name":"sender","type":"address","indexed":true,"internalType":"address"}],"anonymous":false},{"type":"event","name":"RoleRevoked","inputs":[{"name":"role","type":"bytes32","indexed":true,"internalType":"bytes32"},{"name":"account","type":"address","indexed":true,"internalType":"address"},{"name":"sender","type":"address","indexed":true,"internalType":"address"}],"anonymous":false},{"type":"event","name":"RoleRevokedd","inputs":[{"name":"role","type":"bytes32","indexed":true,"internalType":"bytes32"},{"name":"account","type":"address","indexed":true,"internalType":"address"},{"name":"revoker","type":"address","indexed":true,"internalType":"address"}],"anonymous":false},{"type":"event","name":"Unpaused","inputs":[{"name":"account","type":"address","indexed":false,"internalType":"address"}],"anonymous":false},{"type":"error","name":"AccessControlBadConfirmation","inputs":[]},{"type":"error","name":"AccessControlUnauthorizedAccount","inputs":[{"name":"account","type":"address","internalType":"address"},{"name":"neededRole","type":"bytes32","internalType":"bytes32"}]},{"type":"error","name":"EnforcedPause","inputs":[]},{"type":"error","name":"ExpectedPause","inputs":[]},{"type":"error","name":"InvalidAddress","inputs":[]},{"type":"error","name":"UnauthorizedRole","inputs":[{"name":"role","type":"bytes32","internalType":"bytes32"},{"name":"account","type":"address","internalType":"address"}]}],"bytecode":{"object":"0x608060405234801561000f575f5ffd5b505f60015f6101000a81548160ff02191690831515021790555061003b5f5f1b3361011260201b60201c565b5061006c7fa49807205ce4d355092ef5a8a18f56e8913cf4a201fbe287825b095693c217753361011260201b60201c565b506100bd7f569806936459ff248a09460ca2f8b69414438afcd07b5d8303c789c7b29b704d7fa49807205ce4d355092ef5a8a18f56e8913cf4a201fbe287825b095693c2177561020760201b60201c565b61010d7f0ce23c3e399818cfee81a7ab0880f714e53d7672b08df0fa62f2843416e1ea097fa49807205ce4d355092ef5a8a18f56e8913cf4a201fbe287825b095693c2177561020760201b60201c565b6102eb565b5f610123838361026560201b60201c565b6101fd5760015f5f8581526020019081526020015f205f015f8473ffffffffffffffffffffffffffffffffffffffff1673ffffffffffffffffffffffffffffffffffffffff1681526020019081526020015f205f6101000a81548160ff02191690831515021790555061019a6102c860201b60201c565b73ffffffffffffffffffffffffffffffffffffffff168273ffffffffffffffffffffffffffffffffffffffff16847f2f8788117e7eff1d82e926ec794901d17c78024a50270940304540a733656f0d60405160405180910390a460019050610201565b5f90505b92915050565b5f610217836102cf60201b60201c565b9050815f5f8581526020019081526020015f20600101819055508181847fbd79b86ffe0ab8e8776151514217cd7cacd52c909f66475c3af44e129f0b00ff60405160405180910390a4505050565b5f5f5f8481526020019081526020015f205f015f8373ffffffffffffffffffffffffffffffffffffffff1673ffffffffffffffffffffffffffffffffffffffff1681526020019081526020015f205f9054906101000a900460ff16905092915050565b5f33905090565b5f5f5f8381526020019081526020015f20600101549050919050565b611190806102f85f395ff3fe608060405234801561000f575f5ffd5b506004361061012a575f3560e01c80636e5cc4a3116100ab578063a3669aef1161006f578063a3669aef1461032c578063c0483d4414610348578063d547741f14610364578063d559d77114610380578063e7705db61461039e5761012a565b80636e5cc4a31461028657806375b238fc146102b65780638456cb59146102d457806391d14854146102de578063a217fddf1461030e5761012a565b806336568abe116100f257806336568abe1461020a5780633f4ba83a14610226578063410ad90014610230578063549fee491461024c5780635c975abb146102685761012a565b806301ffc9a71461012e578063248a9ca31461015e57806324d7806c1461018e5780632f2ff15d146101be57806333105218146101da575b5f5ffd5b61014860048036038101906101439190610f64565b6103bc565b6040516101559190610fa9565b60405180910390f35b61017860048036038101906101739190610ff5565b6103cd565b604051610185919061102f565b60405180910390f35b6101a860048036038101906101a391906110a2565b6103e9565b6040516101b59190610fa9565b60405180910390f35b6101d860048036038101906101d391906110cd565b61041b565b005b6101f460048036038101906101ef91906110a2565b61043d565b6040516102019190610fa9565b60405180910390f35b610224600480360381019061021f91906110cd565b61046f565b005b61022e6104ea565b005b61024a600480360381019061024591906110a2565b61051f565b005b610266600480360381019061026191906110a2565b610657565b005b61027061072a565b60405161027d9190610fa9565b60405180910390f35b6102a0600480360381019061029b91906110a2565b61073f565b6040516102ad9190610fa9565b60405180910390f35b6102be610771565b6040516102cb919061102f565b60405180910390f35b6102dc610795565b005b6102f860048036038101906102f391906110cd565b6107ca565b6040516103059190610fa9565b60405180910390f35b61031661082d565b604051610323919061102f565b60405180910390f35b610346600480360381019061034191906110a2565b610833565b005b610362600480360381019061035d91906110a2565b610906565b005b61037e600480360381019061037991906110cd565b610a3e565b005b610388610a60565b604051610395919061102f565b60405180910390f35b6103a6610a84565b6040516103b3919061102f565b60405180910390f35b5f6103c682610aa8565b9050919050565b5f5f5f8381526020019081526020015f20600101549050919050565b5f6104147fa49807205ce4d355092ef5a8a18f56e8913cf4a201fbe287825b095693c21775836107ca565b9050919050565b610424826103cd565b61042d81610b21565b6104378383610b35565b50505050565b5f6104687f0ce23c3e399818cfee81a7ab0880f714e53d7672b08df0fa62f2843416e1ea09836107ca565b9050919050565b610477610c1e565b73ffffffffffffffffffffffffffffffffffffffff168173ffffffffffffffffffffffffffffffffffffffff16146104db576040517f6697b23200000000000000000000000000000000000000000000000000000000815260040160405180910390fd5b6104e58282610c25565b505050565b7fa49807205ce4d355092ef5a8a18f56e8913cf4a201fbe287825b095693c2177561051481610b21565b61051c610d0e565b50565b7fa49807205ce4d355092ef5a8a18f56e8913cf4a201fbe287825b095693c2177561054981610b21565b5f73ffffffffffffffffffffffffffffffffffffffff168273ffffffffffffffffffffffffffffffffffffffff16036105ae576040517fe6c4247b00000000000000000000000000000000000000000000000000000000815260040160405180910390fd5b6105d87f0ce23c3e399818cfee81a7ab0880f714e53d7672b08df0fa62f2843416e1ea098361041b565b3373ffffffffffffffffffffffffffffffffffffffff168273ffffffffffffffffffffffffffffffffffffffff167f0ce23c3e399818cfee81a7ab0880f714e53d7672b08df0fa62f2843416e1ea097fd3c3c74ac78e01f4affcaa9191550c84a2b0b79d8f0dfcee7645eda13a90c6c760405160405180910390a45050565b7fa49807205ce4d355092ef5a8a18f56e8913cf4a201fbe287825b095693c2177561068181610b21565b6106ab7f569806936459ff248a09460ca2f8b69414438afcd07b5d8303c789c7b29b704d83610a3e565b3373ffffffffffffffffffffffffffffffffffffffff168273ffffffffffffffffffffffffffffffffffffffff167f569806936459ff248a09460ca2f8b69414438afcd07b5d8303c789c7b29b704d7ff6391f5c32d9c69d2a47ea670b442974b53935d1edc7fd64eb21e047a839171b60405160405180910390a45050565b5f60015f9054906101000a900460ff16905090565b5f61076a7f569806936459ff248a09460ca2f8b69414438afcd07b5d8303c789c7b29b704d836107ca565b9050919050565b7fa49807205ce4d355092ef5a8a18f56e8913cf4a201fbe287825b095693c2177581565b7fa49807205ce4d355092ef5a8a18f56e8913cf4a201fbe287825b095693c217756107bf81610b21565b6107c7610d6f565b50565b5f5f5f8481526020019081526020015f205f015f8373ffffffffffffffffffffffffffffffffffffffff1673ffffffffffffffffffffffffffffffffffffffff1681526020019081526020015f205f9054906101000a900460ff16905092915050565b5f5f1b81565b7fa49807205ce4d355092ef5a8a18f56e8913cf4a201fbe287825b095693c2177561085d81610b21565b6108877f0ce23c3e399818cfee81a7ab0880f714e53d7672b08df0fa62f2843416e1ea0983610a3e565b3373ffffffffffffffffffffffffffffffffffffffff168273ffffffffffffffffffffffffffffffffffffffff167f0ce23c3e399818cfee81a7ab0880f714e53d7672b08df0fa62f2843416e1ea097ff6391f5c32d9c69d2a47ea670b442974b53935d1edc7fd64eb21e047a839171b60405160405180910390a45050565b7fa49807205ce4d355092ef5a8a18f56e8913cf4a201fbe287825b095693c2177561093081610b21565b5f73ffffffffffffffffffffffffffffffffffffffff168273ffffffffffffffffffffffffffffffffffffffff1603610995576040517fe6c4247b00000000000000000000000000000000000000000000000000000000815260040160405180910390fd5b6109bf7f569806936459ff248a09460ca2f8b69414438afcd07b5d8303c789c7b29b704d8361041b565b3373ffffffffffffffffffffffffffffffffffffffff168273ffffffffffffffffffffffffffffffffffffffff167f569806936459ff248a09460ca2f8b69414438afcd07b5d8303c789c7b29b704d7fd3c3c74ac78e01f4affcaa9191550c84a2b0b79d8f0dfcee7645eda13a90c6c760405160405180910390a45050565b610a47826103cd565b610a5081610b21565b610a5a8383610c25565b50505050565b7f569806936459ff248a09460ca2f8b69414438afcd07b5d8303c789c7b29b704d81565b7f0ce23c3e399818cfee81a7ab0880f714e53d7672b08df0fa62f2843416e1ea0981565b5f7f7965db0b000000000000000000000000000000000000000000000000000000007bffffffffffffffffffffffffffffffffffffffffffffffffffffffff1916827bffffffffffffffffffffffffffffffffffffffffffffffffffffffff19161480610b1a5750610b1982610dd0565b5b9050919050565b610b3281610b2d610c1e565b610e39565b50565b5f610b4083836107ca565b610c145760015f5f8581526020019081526020015f205f015f8473ffffffffffffffffffffffffffffffffffffffff1673ffffffffffffffffffffffffffffffffffffffff1681526020019081526020015f205f6101000a81548160ff021916908315150217905550610bb1610c1e565b73ffffffffffffffffffffffffffffffffffffffff168273ffffffffffffffffffffffffffffffffffffffff16847f2f8788117e7eff1d82e926ec794901d17c78024a50270940304540a733656f0d60405160405180910390a460019050610c18565b5f90505b92915050565b5f33905090565b5f610c3083836107ca565b15610d04575f5f5f8581526020019081526020015f205f015f8473ffffffffffffffffffffffffffffffffffffffff1673ffffffffffffffffffffffffffffffffffffffff1681526020019081526020015f205f6101000a81548160ff021916908315150217905550610ca1610c1e565b73ffffffffffffffffffffffffffffffffffffffff168273ffffffffffffffffffffffffffffffffffffffff16847ff6391f5c32d9c69d2a47ea670b442974b53935d1edc7fd64eb21e047a839171b60405160405180910390a460019050610d08565b5f90505b92915050565b610d16610e8a565b5f60015f6101000a81548160ff0219169083151502179055507f5db9ee0a495bf2e6ff9c91a7834c1ba4fdd244a5e8aa4e537bd38aeae4b073aa610d58610c1e565b604051610d65919061111a565b60405180910390a1565b610d77610eca565b6001805f6101000a81548160ff0219169083151502179055507f62e78cea01bee320cd4e420270b5ea74000d11b0c9f74754ebdbfc544b05a258610db9610c1e565b604051610dc6919061111a565b60405180910390a1565b5f7f01ffc9a7000000000000000000000000000000000000000000000000000000007bffffffffffffffffffffffffffffffffffffffffffffffffffffffff1916827bffffffffffffffffffffffffffffffffffffffffffffffffffffffff1916149050919050565b610e4382826107ca565b610e865780826040517fe2517d3f000000000000000000000000000000000000000000000000000000008152600401610e7d929190611133565b60405180910390fd5b5050565b610e9261072a565b610ec8576040517f8dfc202b00000000000000000000000000000000000000000000000000000000815260040160405180910390fd5b565b610ed261072a565b15610f09576040517fd93c066500000000000000000000000000000000000000000000000000000000815260040160405180910390fd5b565b5f5ffd5b5f7fffffffff0000000000000000000000000000000000000000000000000000000082169050919050565b610f4381610f0f565b8114610f4d575f5ffd5b50565b5f81359050610f5e81610f3a565b92915050565b5f60208284031215610f7957610f78610f0b565b5b5f610f8684828501610f50565b91505092915050565b5f8115159050919050565b610fa381610f8f565b82525050565b5f602082019050610fbc5f830184610f9a565b92915050565b5f819050919050565b610fd481610fc2565b8114610fde575f5ffd5b50565b5f81359050610fef81610fcb565b92915050565b5f6020828403121561100a57611009610f0b565b5b5f61101784828501610fe1565b91505092915050565b61102981610fc2565b82525050565b5f6020820190506110425f830184611020565b92915050565b5f73ffffffffffffffffffffffffffffffffffffffff82169050919050565b5f61107182611048565b9050919050565b61108181611067565b811461108b575f5ffd5b50565b5f8135905061109c81611078565b92915050565b5f602082840312156110b7576110b6610f0b565b5b5f6110c48482850161108e565b91505092915050565b5f5f604083850312156110e3576110e2610f0b565b5b5f6110f085828601610fe1565b92505060206111018582860161108e565b9150509250929050565b61111481611067565b82525050565b5f60208201905061112d5f83018461110b565b92915050565b5f6040820190506111465f83018561110b565b6111536020830184611020565b939250505056fea26469706673582212204187471e50c8a6f6b3f4799d2d7d6d54184ef093b088dc7191530e998d6c8d5264736f6c634300081c0033","linkReferences":{}},"methodIdentifiers":{"ADMIN_ROLE()":"75b238fc","DEFAULT_ADMIN_ROLE()":"a217fddf","EDUCATOR_ROLE()":"d559d771","VERIFIER_ROLE()":"e7705db6","assignEducatorRole(address)":"c0483d44","assignVerifierRole(address)":"410ad900","getRoleAdmin(bytes32)":"248a9ca3","grantRole(bytes32,address)":"2f2ff15d","hasRole(bytes32,address)":"91d14854","isAdmin(address)":"24d7806c","isEducator(address)":"6e5cc4a3","isVerifier(address)":"33105218","pause()":"8456cb59","paused()":"5c975abb","renounceRole(bytes32,address)":"36568abe","revokeEducatorRole(address)":"549fee49","revokeRole(bytes32,address)":"d547741f","revokeVerifierRole(address)":"a3669aef","supportsInterface(bytes4)":"01ffc9a7","unpause()":"3f4ba83a"},"id":43}