{"abi":[{"type":"constructor","inputs":[],"stateMutability":"nonpayable"},{"type":"function","name":"ADMIN_ROLE","inputs":[],"outputs":[{"name":"","type":"bytes32","internalType":"bytes32"}],"stateMutability":"view"},{"type":"function","name":"DEFAULT_ADMIN_ROLE","inputs":[],"outputs":[{"name":"","type":"bytes32","internalType":"bytes32"}],"stateMutability":"view"},{"type":"function","name":"EDUCATOR_ROLE","inputs":[],"outputs":[{"name":"","type":"bytes32","internalType":"bytes32"}],"stateMutability":"view"},{"type":"function","name":"createCourse","inputs":[{"name":"_name","type":"string","internalType":"string"},{"name":"_duration","type":"uint256","internalType":"uint256"},{"name":"_requiredScore","type":"uint256","internalType":"uint256"}],"outputs":[],"stateMutability":"nonpayable"},{"type":"function","name":"deactivateCourse","inputs":[{"name":"courseId","type":"uint256","internalType":"uint256"}],"outputs":[],"stateMutability":"nonpayable"},{"type":"function","name":"deregisterStudent","inputs":[],"outputs":[],"stateMutability":"nonpayable"},{"type":"function","name":"enrollInCourse","inputs":[{"name":"_courseId","type":"uint256","internalType":"uint256"}],"outputs":[],"stateMutability":"nonpayable"},{"type":"function","name":"getCourse","inputs":[{"name":"_courseId","type":"uint256","internalType":"uint256"}],"outputs":[{"name":"name","type":"string","internalType":"string"},{"name":"duration","type":"uint256","internalType":"uint256"},{"name":"requiredScore","type":"uint256","internalType":"uint256"},{"name":"isActive","type":"bool","internalType":"bool"}],"stateMutability":"view"},{"type":"function","name":"getExamResult","inputs":[{"name":"_student","type":"address","internalType":"address"},{"name":"_courseId","type":"uint256","internalType":"uint256"}],"outputs":[{"name":"score","type":"uint256","internalType":"uint256"},{"name":"timestamp","type":"uint256","internalType":"uint256"},{"name":"isPassed","type":"bool","internalType":"bool"}],"stateMutability":"view"},{"type":"function","name":"getProgress","inputs":[{"name":"_student","type":"address","internalType":"address"},{"name":"_courseId","type":"uint256","internalType":"uint256"}],"outputs":[{"name":"","type":"uint256","internalType":"uint256"}],"stateMutability":"view"},{"type":"function","name":"getRoleAdmin","inputs":[{"name":"role","type":"bytes32","internalType":"bytes32"}],"outputs":[{"name":"","type":"bytes32","internalType":"bytes32"}],"stateMutability":"view"},{"type":"function","name":"getStudentWithDetails","inputs":[{"name":"_student","type":"address","internalType":"address"}],"outputs":[{"name":"name","type":"string","internalType":"string"},{"name":"enrollmentDate","type":"uint256","internalType":"uint256"},{"name":"enrolledCourses","type":"uint256[]","internalType":"uint256[]"},{"name":"progress","type":"uint256[]","internalType":"uint256[]"},{"name":"results","type":"tuple[]","internalType":"struct AfriacademyRegistry.ExamResult[]","components":[{"name":"courseId","type":"uint256","internalType":"uint256"},{"name":"score","type":"uint256","internalType":"uint256"},{"name":"timestamp","type":"uint256","internalType":"uint256"},{"name":"isPassed","type":"bool","internalType":"bool"}]}],"stateMutability":"view"},{"type":"function","name":"grantRole","inputs":[{"name":"role","type":"bytes32","internalType":"bytes32"},{"name":"account","type":"address","internalType":"address"}],"outputs":[],"stateMutability":"nonpayable"},{"type":"function","name":"hasRole","inputs":[{"name":"role","type":"bytes32","internalType":"bytes32"},{"name":"account","type":"address","internalType":"address"}],"outputs":[{"name":"","type":"bool","internalType":"bool"}],"stateMutability":"view"},{"type":"function","name":"isEnrolled","inputs":[{"name":"_student","type":"address","internalType":"address"},{"name":"_courseId","type":"uint256","internalType":"uint256"}],"outputs":[{"name":"","type":"bool","internalType":"bool"}],"stateMutability":"view"},{"type":"function","name":"isStudentRegistered","inputs":[{"name":"student","type":"address","internalType":"address"}],"outputs":[{"name":"","type":"bool","internalType":"bool"}],"stateMutability":"view"},{"type":"function","name":"pause","inputs":[],"outputs":[],"stateMutability":"nonpayable"},{"type":"function","name":"paused","inputs":[],"outputs":[{"name":"","type":"bool","internalType":"bool"}],"stateMutability":"view"},{"type":"function","name":"recordExamResult","inputs":[{"name":"_student","type":"address","internalType":"address"},{"name":"_courseId","type":"uint256","internalType":"uint256"},{"name":"_score","type":"uint256","internalType":"uint256"}],"outputs":[],"stateMutability":"nonpayable"},{"type":"function","name":"registerStudent","inputs":[{"name":"_name","type":"string","internalType":"string"}],"outputs":[],"stateMutability":"nonpayable"},{"type":"function","name":"renounceRole","inputs":[{"name":"role","type":"bytes32","internalType":"bytes32"},{"name":"callerConfirmation","type":"address","internalType":"address"}],"outputs":[],"stateMutability":"nonpayable"},{"type":"function","name":"revokeRole","inputs":[{"name":"role","type":"bytes32","internalType":"bytes32"},{"name":"account","type":"address","internalType":"address"}],"outputs":[],"stateMutability":"nonpayable"},{"type":"function","name":"supportsInterface","inputs":[{"name":"interfaceId","type":"bytes4","internalType":"bytes4"}],"outputs":[{"name":"","type":"bool","internalType":"bool"}],"stateMutability":"view"},{"type":"function","name":"unpause","inputs":[],"outputs":[],"stateMutability":"nonpayable"},{"type":"function","name":"updateCourse","inputs":[{"name":"courseId","type":"uint256","internalType":"uint256"},{"name":"newName","type":"string","internalType":"string"},{"name":"newDuration","type":"uint256","internalType":"uint256"},{"name":"newRequiredScore","type":"uint256","internalType":"uint256"}],"outputs":[],"stateMutability":"nonpayable"},{"type":"function","name":"updateProgress","inputs":[{"name":"_student","type":"address","internalType":"address"},{"name":"_courseId","type":"uint256","internalType":"uint256"},{"name":"_progress","type":"uint256","internalType":"uint256"}],"outputs":[],"stateMutability":"nonpayable"},{"type":"function","name":"updateStudentName","inputs":[{"name":"newName","type":"string","internalType":"string"}],"outputs":[],"stateMutability":"nonpayable"},{"type":"event","name":"CourseCreated","inputs":[{"name":"courseId","type":"uint256","indexed":true,"internalType":"uint256"},{"name":"name","type":"string","indexed":false,"internalType":"string"},{"name":"duration","type":"uint256","indexed":false,"internalType":"uint256"}],"anonymous":false},{"type":"event","name":"CourseEnrollment","inputs":[{"name":"student","type":"address","indexed":true,"internalType":"address"},{"name":"courseId","type":"uint256","indexed":true,"internalType":"uint256"}],"anonymous":false},{"type":"event","name":"ExamResultRecorded","inputs":[{"name":"student","type":"address","indexed":true,"internalType":"address"},{"name":"courseId","type":"uint256","indexed":true,"internalType":"uint256"},{"name":"score","type":"uint256","indexed":false,"internalType":"uint256"},{"name":"passed","type":"bool","indexed":false,"internalType":"bool"}],"anonymous":false},{"type":"event","name":"Paused","inputs":[{"name":"account","type":"address","indexed":false,"internalType":"address"}],"anonymous":false},{"type":"event","name":"ProgressUpdated","inputs":[{"name":"student","type":"address","indexed":true,"internalType":"address"},{"name":"courseId","type":"uint256","indexed":true,"internalType":"uint256"},{"name":"progress","type":"uint256","indexed":false,"internalType":"uint256"}],"anonymous":false},{"type":"event","name":"RoleAdminChanged","inputs":[{"name":"role","type":"bytes32","indexed":true,"internalType":"bytes32"},{"name":"previousAdminRole","type":"bytes32","indexed":true,"internalType":"bytes32"},{"name":"newAdminRole","type":"bytes32","indexed":true,"internalType":"bytes32"}],"anonymous":false},{"type":"event","name":"RoleGranted","inputs":[{"name":"role","type":"bytes32","indexed":true,"internalType":"bytes32"},{"name":"account","type":"address","indexed":true,"internalType":"address"},{"name":"sender","type":"address","indexed":true,"internalType":"address"}],"anonymous":false},{"type":"event","name":"RoleRevoked","inputs":[{"name":"role","type":"bytes32","indexed":true,"internalType":"bytes32"},{"name":"account","type":"address","indexed":true,"internalType":"address"},{"name":"sender","type":"address","indexed":true,"internalType":"address"}],"anonymous":false},{"type":"event","name":"StudentRegistered","inputs":[{"name":"student","type":"address","indexed":true,"internalType":"address"},{"name":"name","type":"string","indexed":false,"internalType":"string"},{"name":"timestamp","type":"uint256","indexed":false,"internalType":"uint256"}],"anonymous":false},{"type":"event","name":"Unpaused","inputs":[{"name":"account","type":"address","indexed":false,"internalType":"address"}],"anonymous":false},{"type":"error","name":"AccessControlBadConfirmation","inputs":[]},{"type":"error","name":"AccessControlUnauthorizedAccount","inputs":[{"name":"account","type":"address","internalType":"address"},{"name":"neededRole","type":"bytes32","internalType":"bytes32"}]},{"type":"error","name":"AlreadyEnrolled","inputs":[]},{"type":"error","name":"CourseNotActive","inputs":[]},{"type":"error","name":"CourseNotFound","inputs":[]},{"type":"error","name":"EnforcedPause","inputs":[]},{"type":"error","name":"ExpectedPause","inputs":[]},{"type":"error","name":"InvalidScore","inputs":[]},{"type":"error","name":"NotEnrolled","inputs":[]},{"type":"error","name":"ReentrancyGuardReentrantCall","inputs":[]},{"type":"error","name":"StudentAlreadyRegistered","inputs":[]},{"type":"error","name":"StudentNotRegistered","inputs":[]}],"bytecode":{"object":"0x608060405234801561000f575f5ffd5b505f60015f6101000a81548160ff02191690831515021790555060016002819055506100435f5f1b3361007a60201b60201c565b506100747fa49807205ce4d355092ef5a8a18f56e8913cf4a201fbe287825b095693c217753361007a60201b60201c565b506101d9565b5f61008b838361016f60201b60201c565b6101655760015f5f8581526020019081526020015f205f015f8473ffffffffffffffffffffffffffffffffffffffff1673ffffffffffffffffffffffffffffffffffffffff1681526020019081526020015f205f6101000a81548160ff0219169083151502179055506101026101d260201b60201c565b73ffffffffffffffffffffffffffffffffffffffff168273ffffffffffffffffffffffffffffffffffffffff16847f2f8788117e7eff1d82e926ec794901d17c78024a50270940304540a733656f0d60405160405180910390a460019050610169565b5f90505b92915050565b5f5f5f8481526020019081526020015f205f015f8373ffffffffffffffffffffffffffffffffffffffff1673ffffffffffffffffffffffffffffffffffffffff1681526020019081526020015f205f9054906101000a900460ff16905092915050565b5f33905090565b612e91806101e65f395ff3fe608060405234801561000f575f5ffd5b50600436106101a7575f3560e01c80637685e688116100f7578063b8b2e42c11610095578063d547741f1161006f578063d547741f146104ce578063d559d771146104ea578063f3e51b4714610508578063f642380514610512576101a7565b8063b8b2e42c1461043a578063bbb1708c1461046a578063d2da388d1461049a576101a7565b8063a217fddf116100d1578063a217fddf146103c8578063a29057c4146103e6578063ac85495d14610402578063ae0ec5e41461041e576101a7565b80637685e6881461035e5780638456cb591461038e57806391d1485414610398576101a7565b80633f4ba83a116101645780635fcc4cfb1161013e5780635fcc4cfb146102d657806366cb44a91461030857806371e174451461032457806375b238fc14610340576101a7565b80633f4ba83a146102925780635c975abb1461029c5780635e52da27146102ba576101a7565b806301ffc9a7146101ab57806307d0b79e146101db5780630b91e28d146101f7578063248a9ca31461022a5780632f2ff15d1461025a57806336568abe14610276575b5f5ffd5b6101c560048036038101906101c09190612191565b61052e565b6040516101d291906121d6565b60405180910390f35b6101f560048036038101906101f09190612283565b6105a7565b005b610211600480360381019061020c9190612307565b6106ad565b60405161022194939291906123b1565b60405180910390f35b610244600480360381019061023f919061242e565b61077e565b6040516102519190612468565b60405180910390f35b610274600480360381019061026f91906124db565b61079a565b005b610290600480360381019061028b91906124db565b6107bc565b005b61029a610837565b005b6102a461086c565b6040516102b191906121d6565b60405180910390f35b6102d460048036038101906102cf9190612307565b610881565b005b6102f060048036038101906102eb9190612519565b610a96565b6040516102ff93929190612557565b60405180910390f35b610322600480360381019061031d919061258c565b610b11565b005b61033e600480360381019061033991906125dc565b610d78565b005b610348610fa3565b6040516103559190612468565b60405180910390f35b61037860048036038101906103739190612519565b610fc7565b6040516103859190612627565b60405180910390f35b61039661101d565b005b6103b260048036038101906103ad91906124db565b611052565b6040516103bf91906121d6565b60405180910390f35b6103d06110b5565b6040516103dd9190612468565b60405180910390f35b61040060048036038101906103fb919061258c565b6110bb565b005b61041c60048036038101906104179190612307565b61136f565b005b61043860048036038101906104339190612640565b611427565b005b610454600480360381019061044f91906126b1565b6115b1565b60405161046191906121d6565b60405180910390f35b610484600480360381019061047f9190612519565b611606565b60405161049191906121d6565b60405180910390f35b6104b460048036038101906104af91906126b1565b6116a2565b6040516104c595949392919061289d565b60405180910390f35b6104e860048036038101906104e391906124db565b6119ed565b005b6104f2611a0f565b6040516104ff9190612468565b60405180910390f35b610510611a33565b005b61052c600480360381019061052791906125dc565b611b37565b005b5f7f7965db0b000000000000000000000000000000000000000000000000000000007bffffffffffffffffffffffffffffffffffffffffffffffffffffffff1916827bffffffffffffffffffffffffffffffffffffffffffffffffffffffff191614806105a0575061059f82611c15565b5b9050919050565b7f569806936459ff248a09460ca2f8b69414438afcd07b5d8303c789c7b29b704d6105d181611c7e565b6105d9611c92565b60045f8781526020019081526020015f206003015f9054906101000a900460ff16610630576040517fd84e1aec00000000000000000000000000000000000000000000000000000000815260040160405180910390fd5b606482111561066b576040517f1556136500000000000000000000000000000000000000000000000000000000815260040160405180910390fd5b5f60045f8881526020019081526020015f2090508585825f019182610691929190612b3e565b5083816001018190555082816002018190555050505050505050565b60605f5f5f5f60045f8781526020019081526020015f209050805f0181600101548260020154836003015f9054906101000a900460ff168380546106f09061296e565b80601f016020809104026020016040519081016040528092919081815260200182805461071c9061296e565b80156107675780601f1061073e57610100808354040283529160200191610767565b820191905f5260205f20905b81548152906001019060200180831161074a57829003601f168201915b505050505093509450945094509450509193509193565b5f5f5f8381526020019081526020015f20600101549050919050565b6107a38261077e565b6107ac81611c7e565b6107b68383611cd3565b50505050565b6107c4611dbc565b73ffffffffffffffffffffffffffffffffffffffff168173ffffffffffffffffffffffffffffffffffffffff1614610828576040517f6697b23200000000000000000000000000000000000000000000000000000000815260040160405180910390fd5b6108328282611dc3565b505050565b7fa49807205ce4d355092ef5a8a18f56e8913cf4a201fbe287825b095693c2177561086181611c7e565b610869611eac565b50565b5f60015f9054906101000a900460ff16905090565b610889611c92565b610891611f0d565b60035f3373ffffffffffffffffffffffffffffffffffffffff1673ffffffffffffffffffffffffffffffffffffffff1681526020019081526020015f206001015f9054906101000a900460ff16610914576040517f5ba2efc300000000000000000000000000000000000000000000000000000000815260040160405180910390fd5b60045f8281526020019081526020015f206003015f9054906101000a900460ff1661096b576040517fd84e1aec00000000000000000000000000000000000000000000000000000000815260040160405180910390fd5b5f60035f3373ffffffffffffffffffffffffffffffffffffffff1673ffffffffffffffffffffffffffffffffffffffff1681526020019081526020015f2060030190505f818054905090505f5b81811015610a1f57838382815481106109d4576109d3612c0b565b5b905f5260205f20015403610a14576040517f6d6d97d900000000000000000000000000000000000000000000000000000000815260040160405180910390fd5b8060010190506109b8565b508183908060018154018082558091505060019003905f5260205f20015f9091909190915055823373ffffffffffffffffffffffffffffffffffffffff167fb609939f9d86718349a72798a047a6166eb74fbb114b99abe58379b1be7d4d0860405160405180910390a35050610a93611f51565b50565b5f5f5f5f60065f8773ffffffffffffffffffffffffffffffffffffffff1673ffffffffffffffffffffffffffffffffffffffff1681526020019081526020015f205f8681526020019081526020015f20905080600101548160020154826003015f9054906101000a900460ff16935093509350509250925092565b7f569806936459ff248a09460ca2f8b69414438afcd07b5d8303c789c7b29b704d610b3b81611c7e565b610b43611c92565b60035f8573ffffffffffffffffffffffffffffffffffffffff1673ffffffffffffffffffffffffffffffffffffffff1681526020019081526020015f206001015f9054906101000a900460ff16610bc6576040517f5ba2efc300000000000000000000000000000000000000000000000000000000815260040160405180910390fd5b60045f8481526020019081526020015f206003015f9054906101000a900460ff16610c1d576040517fd84e1aec00000000000000000000000000000000000000000000000000000000815260040160405180910390fd5b6064821115610c58576040517f1556136500000000000000000000000000000000000000000000000000000000815260040160405180910390fd5b5f60045f8581526020019081526020015f20600201548310159050604051806080016040528085815260200184815260200142815260200182151581525060065f8773ffffffffffffffffffffffffffffffffffffffff1673ffffffffffffffffffffffffffffffffffffffff1681526020019081526020015f205f8681526020019081526020015f205f820151815f015560208201518160010155604082015181600201556060820151816003015f6101000a81548160ff021916908315150217905550905050838573ffffffffffffffffffffffffffffffffffffffff167faae42785f4e7db13fcd00e8a34a08e647357f8c43c0ade503c1228a2053c308e8584604051610d69929190612c38565b60405180910390a35050505050565b610d80611c92565b60035f3373ffffffffffffffffffffffffffffffffffffffff1673ffffffffffffffffffffffffffffffffffffffff1681526020019081526020015f206001015f9054906101000a900460ff1615610e04576040517f3b11baed00000000000000000000000000000000000000000000000000000000815260040160405180910390fd5b604051806080016040528083838080601f0160208091040260200160405190810160405280939291908181526020018383808284375f81840152601f19601f8201169050808301925050505050505081526020016001151581526020014281526020015f67ffffffffffffffff811115610e8157610e80612914565b5b604051908082528060200260200182016040528015610eaf5781602001602082028036833780820191505090505b5081525060035f3373ffffffffffffffffffffffffffffffffffffffff1673ffffffffffffffffffffffffffffffffffffffff1681526020019081526020015f205f820151815f019081610f039190612c5f565b506020820151816001015f6101000a81548160ff021916908315150217905550604082015181600201556060820151816003019080519060200190610f4992919061204d565b509050503373ffffffffffffffffffffffffffffffffffffffff167f9c9948e5540cad013bb3d06dd108feb894f222ad978608c957d9bd55a5c564e1838342604051610f9793929190612d68565b60405180910390a25050565b7fa49807205ce4d355092ef5a8a18f56e8913cf4a201fbe287825b095693c2177581565b5f60055f8473ffffffffffffffffffffffffffffffffffffffff1673ffffffffffffffffffffffffffffffffffffffff1681526020019081526020015f205f8381526020019081526020015f2054905092915050565b7fa49807205ce4d355092ef5a8a18f56e8913cf4a201fbe287825b095693c2177561104781611c7e565b61104f611f5b565b50565b5f5f5f8481526020019081526020015f205f015f8373ffffffffffffffffffffffffffffffffffffffff1673ffffffffffffffffffffffffffffffffffffffff1681526020019081526020015f205f9054906101000a900460ff16905092915050565b5f5f1b81565b7f569806936459ff248a09460ca2f8b69414438afcd07b5d8303c789c7b29b704d6110e581611c7e565b6110ed611c92565b60035f8573ffffffffffffffffffffffffffffffffffffffff1673ffffffffffffffffffffffffffffffffffffffff1681526020019081526020015f206001015f9054906101000a900460ff16611170576040517f5ba2efc300000000000000000000000000000000000000000000000000000000815260040160405180910390fd5b60045f8481526020019081526020015f206003015f9054906101000a900460ff166111c7576040517fd84e1aec00000000000000000000000000000000000000000000000000000000815260040160405180910390fd5b6064821115611202576040517f1556136500000000000000000000000000000000000000000000000000000000815260040160405180910390fd5b5f5f60035f8773ffffffffffffffffffffffffffffffffffffffff1673ffffffffffffffffffffffffffffffffffffffff1681526020019081526020015f2060030190505f818054905090505f5b8181101561128e578683828154811061126c5761126b612c0b565b5b905f5260205f20015403611283576001935061128e565b806001019050611250565b50826112c6576040517fc950bf9200000000000000000000000000000000000000000000000000000000815260040160405180910390fd5b8460055f8973ffffffffffffffffffffffffffffffffffffffff1673ffffffffffffffffffffffffffffffffffffffff1681526020019081526020015f205f8881526020019081526020015f2081905550858773ffffffffffffffffffffffffffffffffffffffff167fe18b6174bfabbe0a9ab2c4710c46709aa42737153df0b05008c252db8861b8b98760405161135e9190612627565b60405180910390a350505050505050565b7f569806936459ff248a09460ca2f8b69414438afcd07b5d8303c789c7b29b704d61139981611c7e565b6113a1611c92565b60045f8381526020019081526020015f206003015f9054906101000a900460ff166113f8576040517fd84e1aec00000000000000000000000000000000000000000000000000000000815260040160405180910390fd5b5f60045f8481526020019081526020015f206003015f6101000a81548160ff0219169083151502179055505050565b7f569806936459ff248a09460ca2f8b69414438afcd07b5d8303c789c7b29b704d61145181611c7e565b611459611c92565b6064821115611494576040517f1556136500000000000000000000000000000000000000000000000000000000815260040160405180910390fd5b5f60075f81546114a390612dc5565b9190508190559050604051806080016040528087878080601f0160208091040260200160405190810160405280939291908181526020018383808284375f81840152601f19601f8201169050808301925050505050505081526020018581526020018481526020016001151581525060045f8381526020019081526020015f205f820151815f0190816115369190612c5f565b5060208201518160010155604082015181600201556060820151816003015f6101000a81548160ff021916908315150217905550905050807f642f95fc4f73850f9892227ccee20fac4904ba0645894b644766d21a1a8d82058787876040516115a193929190612d68565b60405180910390a2505050505050565b5f60035f8373ffffffffffffffffffffffffffffffffffffffff1673ffffffffffffffffffffffffffffffffffffffff1681526020019081526020015f206001015f9054906101000a900460ff169050919050565b5f5f60035f8573ffffffffffffffffffffffffffffffffffffffff1673ffffffffffffffffffffffffffffffffffffffff1681526020019081526020015f2060030190505f818054905090505f5b8181101561169557848382815481106116705761166f612c0b565b5b905f5260205f2001540361168a576001935050505061169c565b806001019050611654565b505f925050505b92915050565b60605f60608060605f60035f8873ffffffffffffffffffffffffffffffffffffffff1673ffffffffffffffffffffffffffffffffffffffff1681526020019081526020015f2090505f816003018054905090505f8167ffffffffffffffff8111156117105761170f612914565b5b60405190808252806020026020018201604052801561173e5781602001602082028036833780820191505090505b5090505f8267ffffffffffffffff81111561175c5761175b612914565b5b60405190808252806020026020018201604052801561179557816020015b611782612098565b81526020019060019003908161177a5790505b5090505f5f90505b838110156118ed575f8560030182815481106117bc576117bb612c0b565b5b905f5260205f200154905060055f8d73ffffffffffffffffffffffffffffffffffffffff1673ffffffffffffffffffffffffffffffffffffffff1681526020019081526020015f205f8281526020019081526020015f205484838151811061182757611826612c0b565b5b60200260200101818152505060065f8d73ffffffffffffffffffffffffffffffffffffffff1673ffffffffffffffffffffffffffffffffffffffff1681526020019081526020015f205f8281526020019081526020015f206040518060800160405290815f82015481526020016001820154815260200160028201548152602001600382015f9054906101000a900460ff1615151515815250508383815181106118d4576118d3612c0b565b5b602002602001018190525050808060010191505061179d565b50835f0184600201548560030184848480546119089061296e565b80601f01602080910402602001604051908101604052809291908181526020018280546119349061296e565b801561197f5780601f106119565761010080835404028352916020019161197f565b820191905f5260205f20905b81548152906001019060200180831161196257829003601f168201915b50505050509450828054806020026020016040519081016040528092919081815260200182805480156119cf57602002820191905f5260205f20905b8154815260200190600101908083116119bb575b50505050509250985098509850985098505050505091939590929450565b6119f68261077e565b6119ff81611c7e565b611a098383611dc3565b50505050565b7f569806936459ff248a09460ca2f8b69414438afcd07b5d8303c789c7b29b704d81565b611a3b611c92565b60035f3373ffffffffffffffffffffffffffffffffffffffff1673ffffffffffffffffffffffffffffffffffffffff1681526020019081526020015f206001015f9054906101000a900460ff16611abe576040517f5ba2efc300000000000000000000000000000000000000000000000000000000815260040160405180910390fd5b60035f3373ffffffffffffffffffffffffffffffffffffffff1673ffffffffffffffffffffffffffffffffffffffff1681526020019081526020015f205f5f82015f611b0a91906120be565b600182015f6101000a81549060ff0219169055600282015f9055600382015f611b3391906120fb565b5050565b611b3f611c92565b60035f3373ffffffffffffffffffffffffffffffffffffffff1673ffffffffffffffffffffffffffffffffffffffff1681526020019081526020015f206001015f9054906101000a900460ff16611bc2576040517f5ba2efc300000000000000000000000000000000000000000000000000000000815260040160405180910390fd5b818160035f3373ffffffffffffffffffffffffffffffffffffffff1673ffffffffffffffffffffffffffffffffffffffff1681526020019081526020015f205f019182611c10929190612b3e565b505050565b5f7f01ffc9a7000000000000000000000000000000000000000000000000000000007bffffffffffffffffffffffffffffffffffffffffffffffffffffffff1916827bffffffffffffffffffffffffffffffffffffffffffffffffffffffff1916149050919050565b611c8f81611c8a611dbc565b611fbc565b50565b611c9a61086c565b15611cd1576040517fd93c066500000000000000000000000000000000000000000000000000000000815260040160405180910390fd5b565b5f611cde8383611052565b611db25760015f5f8581526020019081526020015f205f015f8473ffffffffffffffffffffffffffffffffffffffff1673ffffffffffffffffffffffffffffffffffffffff1681526020019081526020015f205f6101000a81548160ff021916908315150217905550611d4f611dbc565b73ffffffffffffffffffffffffffffffffffffffff168273ffffffffffffffffffffffffffffffffffffffff16847f2f8788117e7eff1d82e926ec794901d17c78024a50270940304540a733656f0d60405160405180910390a460019050611db6565b5f90505b92915050565b5f33905090565b5f611dce8383611052565b15611ea2575f5f5f8581526020019081526020015f205f015f8473ffffffffffffffffffffffffffffffffffffffff1673ffffffffffffffffffffffffffffffffffffffff1681526020019081526020015f205f6101000a81548160ff021916908315150217905550611e3f611dbc565b73ffffffffffffffffffffffffffffffffffffffff168273ffffffffffffffffffffffffffffffffffffffff16847ff6391f5c32d9c69d2a47ea670b442974b53935d1edc7fd64eb21e047a839171b60405160405180910390a460019050611ea6565b5f90505b92915050565b611eb461200d565b5f60015f6101000a81548160ff0219169083151502179055507f5db9ee0a495bf2e6ff9c91a7834c1ba4fdd244a5e8aa4e537bd38aeae4b073aa611ef6611dbc565b604051611f039190612e1b565b60405180910390a1565b6002805403611f48576040517f3ee5aeb500000000000000000000000000000000000000000000000000000000815260040160405180910390fd5b60028081905550565b6001600281905550565b611f63611c92565b6001805f6101000a81548160ff0219169083151502179055507f62e78cea01bee320cd4e420270b5ea74000d11b0c9f74754ebdbfc544b05a258611fa5611dbc565b604051611fb29190612e1b565b60405180910390a1565b611fc68282611052565b6120095780826040517fe2517d3f000000000000000000000000000000000000000000000000000000008152600401612000929190612e34565b60405180910390fd5b5050565b61201561086c565b61204b576040517f8dfc202b00000000000000000000000000000000000000000000000000000000815260040160405180910390fd5b565b828054828255905f5260205f20908101928215612087579160200282015b8281111561208657825182559160200191906001019061206b565b5b5090506120949190612119565b5090565b60405180608001604052805f81526020015f81526020015f81526020015f151581525090565b5080546120ca9061296e565b5f825580601f106120db57506120f8565b601f0160209004905f5260205f20908101906120f79190612119565b5b50565b5080545f8255905f5260205f20908101906121169190612119565b50565b5b80821115612130575f815f90555060010161211a565b5090565b5f5ffd5b5f5ffd5b5f7fffffffff0000000000000000000000000000000000000000000000000000000082169050919050565b6121708161213c565b811461217a575f5ffd5b50565b5f8135905061218b81612167565b92915050565b5f602082840312156121a6576121a5612134565b5b5f6121b38482850161217d565b91505092915050565b5f8115159050919050565b6121d0816121bc565b82525050565b5f6020820190506121e95f8301846121c7565b92915050565b5f819050919050565b612201816121ef565b811461220b575f5ffd5b50565b5f8135905061221c816121f8565b92915050565b5f5ffd5b5f5ffd5b5f5ffd5b5f5f83601f84011261224357612242612222565b5b8235905067ffffffffffffffff8111156122605761225f612226565b5b60208301915083600182028301111561227c5761227b61222a565b5b9250929050565b5f5f5f5f5f6080868803121561229c5761229b612134565b5b5f6122a98882890161220e565b955050602086013567ffffffffffffffff8111156122ca576122c9612138565b5b6122d68882890161222e565b945094505060406122e98882890161220e565b92505060606122fa8882890161220e565b9150509295509295909350565b5f6020828403121561231c5761231b612134565b5b5f6123298482850161220e565b91505092915050565b5f81519050919050565b5f82825260208201905092915050565b8281835e5f83830152505050565b5f601f19601f8301169050919050565b5f61237482612332565b61237e818561233c565b935061238e81856020860161234c565b6123978161235a565b840191505092915050565b6123ab816121ef565b82525050565b5f6080820190508181035f8301526123c9818761236a565b90506123d860208301866123a2565b6123e560408301856123a2565b6123f260608301846121c7565b95945050505050565b5f819050919050565b61240d816123fb565b8114612417575f5ffd5b50565b5f8135905061242881612404565b92915050565b5f6020828403121561244357612442612134565b5b5f6124508482850161241a565b91505092915050565b612462816123fb565b82525050565b5f60208201905061247b5f830184612459565b92915050565b5f73ffffffffffffffffffffffffffffffffffffffff82169050919050565b5f6124aa82612481565b9050919050565b6124ba816124a0565b81146124c4575f5ffd5b50565b5f813590506124d5816124b1565b92915050565b5f5f604083850312156124f1576124f0612134565b5b5f6124fe8582860161241a565b925050602061250f858286016124c7565b9150509250929050565b5f5f6040838503121561252f5761252e612134565b5b5f61253c858286016124c7565b925050602061254d8582860161220e565b9150509250929050565b5f60608201905061256a5f8301866123a2565b61257760208301856123a2565b61258460408301846121c7565b949350505050565b5f5f5f606084860312156125a3576125a2612134565b5b5f6125b0868287016124c7565b93505060206125c18682870161220e565b92505060406125d28682870161220e565b9150509250925092565b5f5f602083850312156125f2576125f1612134565b5b5f83013567ffffffffffffffff81111561260f5761260e612138565b5b61261b8582860161222e565b92509250509250929050565b5f60208201905061263a5f8301846123a2565b92915050565b5f5f5f5f6060858703121561265857612657612134565b5b5f85013567ffffffffffffffff81111561267557612674612138565b5b6126818782880161222e565b945094505060206126948782880161220e565b92505060406126a58782880161220e565b91505092959194509250565b5f602082840312156126c6576126c5612134565b5b5f6126d3848285016124c7565b91505092915050565b5f81519050919050565b5f82825260208201905092915050565b5f819050602082019050919050565b61270e816121ef565b82525050565b5f61271f8383612705565b60208301905092915050565b5f602082019050919050565b5f612741826126dc565b61274b81856126e6565b9350612756836126f6565b805f5b8381101561278657815161276d8882612714565b97506127788361272b565b925050600181019050612759565b5085935050505092915050565b5f81519050919050565b5f82825260208201905092915050565b5f819050602082019050919050565b6127c5816121bc565b82525050565b608082015f8201516127df5f850182612705565b5060208201516127f26020850182612705565b5060408201516128056040850182612705565b50606082015161281860608501826127bc565b50505050565b5f61282983836127cb565b60808301905092915050565b5f602082019050919050565b5f61284b82612793565b612855818561279d565b9350612860836127ad565b805f5b83811015612890578151612877888261281e565b975061288283612835565b925050600181019050612863565b5085935050505092915050565b5f60a0820190508181035f8301526128b5818861236a565b90506128c460208301876123a2565b81810360408301526128d68186612737565b905081810360608301526128ea8185612737565b905081810360808301526128fe8184612841565b90509695505050505050565b5f82905092915050565b7f4e487b71000000000000000000000000000000000000000000000000000000005f52604160045260245ffd5b7f4e487b71000000000000000000000000000000000000000000000000000000005f52602260045260245ffd5b5f600282049050600182168061298557607f821691505b60208210810361299857612997612941565b5b50919050565b5f819050815f5260205f209050919050565b5f6020601f8301049050919050565b5f82821b905092915050565b5f600883026129fa7fffffffffffffffffffffffffffffffffffffffffffffffffffffffffffffffff826129bf565b612a0486836129bf565b95508019841693508086168417925050509392505050565b5f819050919050565b5f612a3f612a3a612a35846121ef565b612a1c565b6121ef565b9050919050565b5f819050919050565b612a5883612a25565b612a6c612a6482612a46565b8484546129cb565b825550505050565b5f5f905090565b612a83612a74565b612a8e818484612a4f565b505050565b5b81811015612ab157612aa65f82612a7b565b600181019050612a94565b5050565b601f821115612af657612ac78161299e565b612ad0846129b0565b81016020851015612adf578190505b612af3612aeb856129b0565b830182612a93565b50505b505050565b5f82821c905092915050565b5f612b165f1984600802612afb565b1980831691505092915050565b5f612b2e8383612b07565b9150826002028217905092915050565b612b48838361290a565b67ffffffffffffffff811115612b6157612b60612914565b5b612b6b825461296e565b612b76828285612ab5565b5f601f831160018114612ba3575f8415612b91578287013590505b612b9b8582612b23565b865550612c02565b601f198416612bb18661299e565b5f5b82811015612bd857848901358255600182019150602085019450602081019050612bb3565b86831015612bf55784890135612bf1601f891682612b07565b8355505b6001600288020188555050505b50505050505050565b7f4e487b71000000000000000000000000000000000000000000000000000000005f52603260045260245ffd5b5f604082019050612c4b5f8301856123a2565b612c5860208301846121c7565b9392505050565b612c6882612332565b67ffffffffffffffff811115612c8157612c80612914565b5b612c8b825461296e565b612c96828285612ab5565b5f60209050601f831160018114612cc7575f8415612cb5578287015190505b612cbf8582612b23565b865550612d26565b601f198416612cd58661299e565b5f5b82811015612cfc57848901518255600182019150602085019450602081019050612cd7565b86831015612d195784890151612d15601f891682612b07565b8355505b6001600288020188555050505b505050505050565b828183375f83830152505050565b5f612d47838561233c565b9350612d54838584612d2e565b612d5d8361235a565b840190509392505050565b5f6040820190508181035f830152612d81818587612d3c565b9050612d9060208301846123a2565b949350505050565b7f4e487b71000000000000000000000000000000000000000000000000000000005f52601160045260245ffd5b5f612dcf826121ef565b91507fffffffffffffffffffffffffffffffffffffffffffffffffffffffffffffffff8203612e0157612e00612d98565b5b600182019050919050565b612e15816124a0565b82525050565b5f602082019050612e2e5f830184612e0c565b92915050565b5f604082019050612e475f830185612e0c565b612e546020830184612459565b939250505056fea2646970667358221220a5dd7123da8f0b8e105f5920da43747766827b33e53a303635f703d6289aa17264736f6c634300081c0033","linkReferences":{}},"methodIdentifiers":{"ADMIN_ROLE()":"75b238fc","DEFAULT_ADMIN_ROLE()":"a217fddf","EDUCATOR_ROLE()":"d559d771","createCourse(string,uint256,uint256)":"ae0ec5e4","deactivateCourse(uint256)":"ac85495d","deregisterStudent()":"f3e51b47","enrollInCourse(uint256)":"5e52da27","getCourse(uint256)":"0b91e28d","getExamResult(address,uint256)":"5fcc4cfb","getProgress(address,uint256)":"7685e688","getRoleAdmin(bytes32)":"248a9ca3","getStudentWithDetails(address)":"d2da388d","grantRole(bytes32,address)":"2f2ff15d","hasRole(bytes32,address)":"91d14854","isEnrolled(address,uint256)":"bbb1708c","isStudentRegistered(address)":"b8b2e42c","pause()":"8456cb59","paused()":"5c975abb","recordExamResult(address,uint256,uint256)":"66cb44a9","registerStudent(string)":"71e17445","renounceRole(bytes32,address)":"36568abe","revokeRole(bytes32,address)":"d547741f","supportsInterface(bytes4)":"01ffc9a7","unpause()":"3f4ba83a","updateCourse(uint256,string,uint256,uint256)":"07d0b79e","updateProgress(address,uint256,uint256)":"a29057c4","updateStudentName(string)":"f6423805"},"id":45}