{"abi":[{"type":"constructor","inputs":[{"name":"name","type":"string","internalType":"string"},{"name":"symbol","type":"string","internalType":"string"}],"stateMutability":"nonpayable"},{"type":"function","name":"DEFAULT_ADMIN_ROLE","inputs":[],"outputs":[{"name":"","type":"bytes32","internalType":"bytes32"}],"stateMutability":"view"},{"type":"function","name":"MINTER_ROLE","inputs":[],"outputs":[{"name":"","type":"bytes32","internalType":"bytes32"}],"stateMutability":"view"},{"type":"function","name":"approve","inputs":[{"name":"to","type":"address","internalType":"address"},{"name":"tokenId","type":"uint256","internalType":"uint256"}],"outputs":[],"stateMutability":"nonpayable"},{"type":"function","name":"balanceOf","inputs":[{"name":"owner","type":"address","internalType":"address"}],"outputs":[{"name":"","type":"uint256","internalType":"uint256"}],"stateMutability":"view"},{"type":"function","name":"certificates","inputs":[{"name":"","type":"uint256","internalType":"uint256"}],"outputs":[{"name":"student","type":"address","internalType":"address"},{"name":"courseId","type":"uint256","internalType":"uint256"},{"name":"issueDate","type":"uint256","internalType":"uint256"},{"name":"score","type":"uint256","internalType":"uint256"},{"name":"courseName","type":"string","internalType":"string"}],"stateMutability":"view"},{"type":"function","name":"getApproved","inputs":[{"name":"tokenId","type":"uint256","internalType":"uint256"}],"outputs":[{"name":"","type":"address","internalType":"address"}],"stateMutability":"view"},{"type":"function","name":"getCertificateData","inputs":[{"name":"tokenId","type":"uint256","internalType":"uint256"}],"outputs":[{"name":"student","type":"address","internalType":"address"},{"name":"courseId","type":"uint256","internalType":"uint256"},{"name":"issueDate","type":"uint256","internalType":"uint256"},{"name":"score","type":"uint256","internalType":"uint256"},{"name":"courseName","type":"string","internalType":"string"}],"stateMutability":"view"},{"type":"function","name":"getRoleAdmin","inputs":[{"name":"role","type":"bytes32","internalType":"bytes32"}],"outputs":[{"name":"","type":"bytes32","internalType":"bytes32"}],"stateMutability":"view"},{"type":"function","name":"grantRole","inputs":[{"name":"role","type":"bytes32","internalType":"bytes32"},{"name":"account","type":"address","internalType":"address"}],"outputs":[],"stateMutability":"nonpayable"},{"type":"function","name":"hasRole","inputs":[{"name":"role","type":"bytes32","internalType":"bytes32"},{"name":"account","type":"address","internalType":"address"}],"outputs":[{"name":"","type":"bool","internalType":"bool"}],"stateMutability":"view"},{"type":"function","name":"isApprovedForAll","inputs":[{"name":"owner","type":"address","internalType":"address"},{"name":"operator","type":"address","internalType":"address"}],"outputs":[{"name":"","type":"bool","internalType":"bool"}],"stateMutability":"view"},{"type":"function","name":"isValidDecentralizedURI","inputs":[{"name":"uri","type":"string","internalType":"string"}],"outputs":[{"name":"","type":"bool","internalType":"bool"}],"stateMutability":"pure"},{"type":"function","name":"mintCertificate","inputs":[{"name":"student","type":"address","internalType":"address"},{"name":"courseId","type":"uint256","internalType":"uint256"},{"name":"courseName","type":"string","internalType":"string"},{"name":"score","type":"uint256","internalType":"uint256"},{"name":"metadataURI","type":"string","internalType":"string"}],"outputs":[{"name":"","type":"uint256","internalType":"uint256"}],"stateMutability":"nonpayable"},{"type":"function","name":"name","inputs":[],"outputs":[{"name":"","type":"string","internalType":"string"}],"stateMutability":"view"},{"type":"function","name":"ownerOf","inputs":[{"name":"tokenId","type":"uint256","internalType":"uint256"}],"outputs":[{"name":"","type":"address","internalType":"address"}],"stateMutability":"view"},{"type":"function","name":"pause","inputs":[],"outputs":[],"stateMutability":"nonpayable"},{"type":"function","name":"paused","inputs":[],"outputs":[{"name":"","type":"bool","internalType":"bool"}],"stateMutability":"view"},{"type":"function","name":"renounceRole","inputs":[{"name":"role","type":"bytes32","internalType":"bytes32"},{"name":"callerConfirmation","type":"address","internalType":"address"}],"outputs":[],"stateMutability":"nonpayable"},{"type":"function","name":"revokeRole","inputs":[{"name":"role","type":"bytes32","internalType":"bytes32"},{"name":"account","type":"address","internalType":"address"}],"outputs":[],"stateMutability":"nonpayable"},{"type":"function","name":"safeTransferFrom","inputs":[{"name":"from","type":"address","internalType":"address"},{"name":"to","type":"address","internalType":"address"},{"name":"tokenId","type":"uint256","internalType":"uint256"}],"outputs":[],"stateMutability":"nonpayable"},{"type":"function","name":"safeTransferFrom","inputs":[{"name":"from","type":"address","internalType":"address"},{"name":"to","type":"address","internalType":"address"},{"name":"tokenId","type":"uint256","internalType":"uint256"},{"name":"data","type":"bytes","internalType":"bytes"}],"outputs":[],"stateMutability":"nonpayable"},{"type":"function","name":"setApprovalForAll","inputs":[{"name":"operator","type":"address","internalType":"address"},{"name":"approved","type":"bool","internalType":"bool"}],"outputs":[],"stateMutability":"nonpayable"},{"type":"function","name":"supportsInterface","inputs":[{"name":"interfaceId","type":"bytes4","internalType":"bytes4"}],"outputs":[{"name":"","type":"bool","internalType":"bool"}],"stateMutability":"view"},{"type":"function","name":"symbol","inputs":[],"outputs":[{"name":"","type":"string","internalType":"string"}],"stateMutability":"view"},{"type":"function","name":"tokenURI","inputs":[{"name":"tokenId","type":"uint256","internalType":"uint256"}],"outputs":[{"name":"","type":"string","internalType":"string"}],"stateMutability":"view"},{"type":"function","name":"transferFrom","inputs":[{"name":"from","type":"address","internalType":"address"},{"name":"to","type":"address","internalType":"address"},{"name":"tokenId","type":"uint256","internalType":"uint256"}],"outputs":[],"stateMutability":"nonpayable"},{"type":"function","name":"unpause","inputs":[],"outputs":[],"stateMutability":"nonpayable"},{"type":"event","name":"Approval","inputs":[{"name":"owner","type":"address","indexed":true,"internalType":"address"},{"name":"approved","type":"address","indexed":true,"internalType":"address"},{"name":"tokenId","type":"uint256","indexed":true,"internalType":"uint256"}],"anonymous":false},{"type":"event","name":"ApprovalForAll","inputs":[{"name":"owner","type":"address","indexed":true,"internalType":"address"},{"name":"operator","type":"address","indexed":true,"internalType":"address"},{"name":"approved","type":"bool","indexed":false,"internalType":"bool"}],"anonymous":false},{"type":"event","name":"BatchMetadataUpdate","inputs":[{"name":"_fromTokenId","type":"uint256","indexed":false,"internalType":"uint256"},{"name":"_toTokenId","type":"uint256","indexed":false,"internalType":"uint256"}],"anonymous":false},{"type":"event","name":"CertificateMinted","inputs":[{"name":"tokenId","type":"uint256","indexed":true,"internalType":"uint256"},{"name":"student","type":"address","indexed":true,"internalType":"address"},{"name":"courseId","type":"uint256","indexed":true,"internalType":"uint256"},{"name":"score","type":"uint256","indexed":false,"internalType":"uint256"},{"name":"issueDate","type":"uint256","indexed":false,"internalType":"uint256"}],"anonymous":false},{"type":"event","name":"MetadataUpdate","inputs":[{"name":"_tokenId","type":"uint256","indexed":false,"internalType":"uint256"}],"anonymous":false},{"type":"event","name":"Paused","inputs":[{"name":"account","type":"address","indexed":false,"internalType":"address"}],"anonymous":false},{"type":"event","name":"RoleAdminChanged","inputs":[{"name":"role","type":"bytes32","indexed":true,"internalType":"bytes32"},{"name":"previousAdminRole","type":"bytes32","indexed":true,"internalType":"bytes32"},{"name":"newAdminRole","type":"bytes32","indexed":true,"internalType":"bytes32"}],"anonymous":false},{"type":"event","name":"RoleGranted","inputs":[{"name":"role","type":"bytes32","indexed":true,"internalType":"bytes32"},{"name":"account","type":"address","indexed":true,"internalType":"address"},{"name":"sender","type":"address","indexed":true,"internalType":"address"}],"anonymous":false},{"type":"event","name":"RoleRevoked","inputs":[{"name":"role","type":"bytes32","indexed":true,"internalType":"bytes32"},{"name":"account","type":"address","indexed":true,"internalType":"address"},{"name":"sender","type":"address","indexed":true,"internalType":"address"}],"anonymous":false},{"type":"event","name":"Transfer","inputs":[{"name":"from","type":"address","indexed":true,"internalType":"address"},{"name":"to","type":"address","indexed":true,"internalType":"address"},{"name":"tokenId","type":"uint256","indexed":true,"internalType":"uint256"}],"anonymous":false},{"type":"event","name":"Unpaused","inputs":[{"name":"account","type":"address","indexed":false,"internalType":"address"}],"anonymous":false},{"type":"error","name":"AccessControlBadConfirmation","inputs":[]},{"type":"error","name":"AccessControlUnauthorizedAccount","inputs":[{"name":"account","type":"address","internalType":"address"},{"name":"neededRole","type":"bytes32","internalType":"bytes32"}]},{"type":"error","name":"ERC721IncorrectOwner","inputs":[{"name":"sender","type":"address","internalType":"address"},{"name":"tokenId","type":"uint256","internalType":"uint256"},{"name":"owner","type":"address","internalType":"address"}]},{"type":"error","name":"ERC721InsufficientApproval","inputs":[{"name":"operator","type":"address","internalType":"address"},{"name":"tokenId","type":"uint256","internalType":"uint256"}]},{"type":"error","name":"ERC721InvalidApprover","inputs":[{"name":"approver","type":"address","internalType":"address"}]},{"type":"error","name":"ERC721InvalidOperator","inputs":[{"name":"operator","type":"address","internalType":"address"}]},{"type":"error","name":"ERC721InvalidOwner","inputs":[{"name":"owner","type":"address","internalType":"address"}]},{"type":"error","name":"ERC721InvalidReceiver","inputs":[{"name":"receiver","type":"address","internalType":"address"}]},{"type":"error","name":"ERC721InvalidSender","inputs":[{"name":"sender","type":"address","internalType":"address"}]},{"type":"error","name":"ERC721NonexistentToken","inputs":[{"name":"tokenId","type":"uint256","internalType":"uint256"}]},{"type":"error","name":"EnforcedPause","inputs":[]},{"type":"error","name":"ExpectedPause","inputs":[]}],"bytecode":{"object":"0x608060405234801561000f575f5ffd5b50604051613b60380380613b6083398181016040528101906100319190610335565b8181815f908161004191906105bb565b50806001908161005191906105bb565b5050505f60085f6101000a81548160ff02191690831515021790555061007f5f5f1b3361008760201b60201c565b50505061068a565b5f610098838361017d60201b60201c565b61017357600160075f8581526020019081526020015f205f015f8473ffffffffffffffffffffffffffffffffffffffff1673ffffffffffffffffffffffffffffffffffffffff1681526020019081526020015f205f6101000a81548160ff0219169083151502179055506101106101e160201b60201c565b73ffffffffffffffffffffffffffffffffffffffff168273ffffffffffffffffffffffffffffffffffffffff16847f2f8788117e7eff1d82e926ec794901d17c78024a50270940304540a733656f0d60405160405180910390a460019050610177565b5f90505b92915050565b5f60075f8481526020019081526020015f205f015f8373ffffffffffffffffffffffffffffffffffffffff1673ffffffffffffffffffffffffffffffffffffffff1681526020019081526020015f205f9054906101000a900460ff16905092915050565b5f33905090565b5f604051905090565b5f5ffd5b5f5ffd5b5f5ffd5b5f5ffd5b5f601f19601f8301169050919050565b7f4e487b71000000000000000000000000000000000000000000000000000000005f52604160045260245ffd5b61024782610201565b810181811067ffffffffffffffff8211171561026657610265610211565b5b80604052505050565b5f6102786101e8565b9050610284828261023e565b919050565b5f67ffffffffffffffff8211156102a3576102a2610211565b5b6102ac82610201565b9050602081019050919050565b8281835e5f83830152505050565b5f6102d96102d484610289565b61026f565b9050828152602081018484840111156102f5576102f46101fd565b5b6103008482856102b9565b509392505050565b5f82601f83011261031c5761031b6101f9565b5b815161032c8482602086016102c7565b91505092915050565b5f5f6040838503121561034b5761034a6101f1565b5b5f83015167ffffffffffffffff811115610368576103676101f5565b5b61037485828601610308565b925050602083015167ffffffffffffffff811115610395576103946101f5565b5b6103a185828601610308565b9150509250929050565b5f81519050919050565b7f4e487b71000000000000000000000000000000000000000000000000000000005f52602260045260245ffd5b5f60028204905060018216806103f957607f821691505b60208210810361040c5761040b6103b5565b5b50919050565b5f819050815f5260205f209050919050565b5f6020601f8301049050919050565b5f82821b905092915050565b5f6008830261046e7fffffffffffffffffffffffffffffffffffffffffffffffffffffffffffffffff82610433565b6104788683610433565b95508019841693508086168417925050509392505050565b5f819050919050565b5f819050919050565b5f6104bc6104b76104b284610490565b610499565b610490565b9050919050565b5f819050919050565b6104d5836104a2565b6104e96104e1826104c3565b84845461043f565b825550505050565b5f5f905090565b6105006104f1565b61050b8184846104cc565b505050565b5b8181101561052e576105235f826104f8565b600181019050610511565b5050565b601f8211156105735761054481610412565b61054d84610424565b8101602085101561055c578190505b61057061056885610424565b830182610510565b50505b505050565b5f82821c905092915050565b5f6105935f1984600802610578565b1980831691505092915050565b5f6105ab8383610584565b9150826002028217905092915050565b6105c4826103ab565b67ffffffffffffffff8111156105dd576105dc610211565b5b6105e782546103e2565b6105f2828285610532565b5f60209050601f831160018114610623575f8415610611578287015190505b61061b85826105a0565b865550610682565b601f19841661063186610412565b5f5b8281101561065857848901518255600182019150602085019450602081019050610633565b868310156106755784890151610671601f891682610584565b8355505b6001600288020188555050505b505050505050565b6134c9806106975f395ff3fe608060405234801561000f575f5ffd5b50600436106101a7575f3560e01c80636352211e116100f7578063a22cb46511610095578063ca78add61161006f578063ca78add6146104e3578063d539139314610513578063d547741f14610531578063e985e9c51461054d576101a7565b8063a22cb4651461047b578063b88d4fde14610497578063c87b56dd146104b3576101a7565b80638456cb59116100d15780638456cb591461040557806391d148541461040f57806395d89b411461043f578063a217fddf1461045d576101a7565b80636352211e14610371578063663b3e22146103a157806370a08231146103d5576101a7565b8063248a9ca31161016457806336568abe1161013e57806336568abe146103115780633f4ba83a1461032d57806342842e0e146103375780635c975abb14610353576101a7565b8063248a9ca3146102915780632f2ff15d146102c157806331494bbb146102dd576101a7565b806301ffc9a7146101ab57806306fdde03146101db578063081812fc146101f9578063095ea7b31461022957806320fd9a711461024557806323b872dd14610275575b5f5ffd5b6101c560048036038101906101c0919061263d565b61057d565b6040516101d29190612682565b60405180910390f35b6101e361058e565b6040516101f0919061270b565b60405180910390f35b610213600480360381019061020e919061275e565b61061d565b60405161022091906127c8565b60405180910390f35b610243600480360381019061023e919061280b565b610638565b005b61025f600480360381019061025a9190612975565b61064e565b60405161026c9190612682565b60405180910390f35b61028f600480360381019061028a91906129bc565b610868565b005b6102ab60048036038101906102a69190612a3f565b610967565b6040516102b89190612a79565b60405180910390f35b6102db60048036038101906102d69190612a92565b610984565b005b6102f760048036038101906102f2919061275e565b6109a6565b604051610308959493929190612adf565b60405180910390f35b61032b60048036038101906103269190612a92565b610af9565b005b610335610b74565b005b610351600480360381019061034c91906129bc565b610b8b565b005b61035b610baa565b6040516103689190612682565b60405180910390f35b61038b6004803603810190610386919061275e565b610bbf565b60405161039891906127c8565b60405180910390f35b6103bb60048036038101906103b6919061275e565b610bd0565b6040516103cc959493929190612adf565b60405180910390f35b6103ef60048036038101906103ea9190612b37565b610ca7565b6040516103fc9190612b62565b60405180910390f35b61040d610d5d565b005b61042960048036038101906104249190612a92565b610d74565b6040516104369190612682565b60405180910390f35b610447610dd8565b604051610454919061270b565b60405180910390f35b610465610e68565b6040516104729190612a79565b60405180910390f35b61049560048036038101906104909190612ba5565b610e6e565b005b6104b160048036038101906104ac9190612c81565b610e84565b005b6104cd60048036038101906104c8919061275e565b610ea9565b6040516104da919061270b565b60405180910390f35b6104fd60048036038101906104f89190612d01565b610fb4565b60405161050a9190612b62565b60405180910390f35b61051b6111cc565b6040516105289190612a79565b60405180910390f35b61054b60048036038101906105469190612a92565b6111f0565b005b61056760048036038101906105629190612db0565b611212565b6040516105749190612682565b60405180910390f35b5f610587826112a0565b9050919050565b60605f805461059c90612e1b565b80601f01602080910402602001604051908101604052809291908181526020018280546105c890612e1b565b80156106135780601f106105ea57610100808354040283529160200191610613565b820191905f5260205f20905b8154815290600101906020018083116105f657829003601f168201915b5050505050905090565b5f61062782611319565b506106318261139f565b9050919050565b61064a82826106456113d8565b6113df565b5050565b5f5f829050600781511015610666575f915050610863565b5f6040518060400160405280600781526020017f697066733a2f2f0000000000000000000000000000000000000000000000000081525090505f6040518060400160405280600581526020017f61723a2f2f00000000000000000000000000000000000000000000000000000081525090505f5f90505b8251811015610799578281815181106106f9576106f8612e4b565b5b602001015160f81c60f81b7effffffffffffffffffffffffffffffffffffffffffffffffffffffffffffff191684828151811061073957610738612e4b565b5b602001015160f81c60f81b7effffffffffffffffffffffffffffffffffffffffffffffffffffffffffffff19160361079957600183516107799190612ea5565b810361078c576001945050505050610863565b80806001019150506106dd565b505f5f90505b815181101561085b578181815181106107bb576107ba612e4b565b5b602001015160f81c60f81b7effffffffffffffffffffffffffffffffffffffffffffffffffffffffffffff19168482815181106107fb576107fa612e4b565b5b602001015160f81c60f81b7effffffffffffffffffffffffffffffffffffffffffffffffffffffffffffff19160361085b576001825161083b9190612ea5565b810361084e576001945050505050610863565b808060010191505061079f565b505f93505050505b919050565b5f73ffffffffffffffffffffffffffffffffffffffff168273ffffffffffffffffffffffffffffffffffffffff16036108d8575f6040517f64a0ae920000000000000000000000000000000000000000000000000000000081526004016108cf91906127c8565b60405180910390fd5b5f6108eb83836108e66113d8565b6113f1565b90508373ffffffffffffffffffffffffffffffffffffffff168173ffffffffffffffffffffffffffffffffffffffff1614610961578382826040517f64283d7b00000000000000000000000000000000000000000000000000000000815260040161095893929190612ed8565b60405180910390fd5b50505050565b5f60075f8381526020019081526020015f20600101549050919050565b61098d82610967565b610996816115fc565b6109a08383611610565b50505050565b5f5f5f5f60605f600a5f8881526020019081526020015f206040518060a00160405290815f82015f9054906101000a900473ffffffffffffffffffffffffffffffffffffffff1673ffffffffffffffffffffffffffffffffffffffff1673ffffffffffffffffffffffffffffffffffffffff168152602001600182015481526020016002820154815260200160038201548152602001600482018054610a4b90612e1b565b80601f0160208091040260200160405190810160405280929190818152602001828054610a7790612e1b565b8015610ac25780601f10610a9957610100808354040283529160200191610ac2565b820191905f5260205f20905b815481529060010190602001808311610aa557829003601f168201915b5050505050815250509050805f01518160200151826040015183606001518460800151955095509550955095505091939590929450565b610b016113d8565b73ffffffffffffffffffffffffffffffffffffffff168173ffffffffffffffffffffffffffffffffffffffff1614610b65576040517f6697b23200000000000000000000000000000000000000000000000000000000815260040160405180910390fd5b610b6f82826116fa565b505050565b5f5f1b610b80816115fc565b610b886117e4565b50565b610ba583838360405180602001604052805f815250610e84565b505050565b5f60085f9054906101000a900460ff16905090565b5f610bc982611319565b9050919050565b600a602052805f5260405f205f91509050805f015f9054906101000a900473ffffffffffffffffffffffffffffffffffffffff1690806001015490806002015490806003015490806004018054610c2690612e1b565b80601f0160208091040260200160405190810160405280929190818152602001828054610c5290612e1b565b8015610c9d5780601f10610c7457610100808354040283529160200191610c9d565b820191905f5260205f20905b815481529060010190602001808311610c8057829003601f168201915b5050505050905085565b5f5f73ffffffffffffffffffffffffffffffffffffffff168273ffffffffffffffffffffffffffffffffffffffff1603610d18575f6040517f89c62b64000000000000000000000000000000000000000000000000000000008152600401610d0f91906127c8565b60405180910390fd5b60035f8373ffffffffffffffffffffffffffffffffffffffff1673ffffffffffffffffffffffffffffffffffffffff1681526020019081526020015f20549050919050565b5f5f1b610d69816115fc565b610d71611845565b50565b5f60075f8481526020019081526020015f205f015f8373ffffffffffffffffffffffffffffffffffffffff1673ffffffffffffffffffffffffffffffffffffffff1681526020019081526020015f205f9054906101000a900460ff16905092915050565b606060018054610de790612e1b565b80601f0160208091040260200160405190810160405280929190818152602001828054610e1390612e1b565b8015610e5e5780601f10610e3557610100808354040283529160200191610e5e565b820191905f5260205f20905b815481529060010190602001808311610e4157829003601f168201915b5050505050905090565b5f5f1b81565b610e80610e796113d8565b83836118a7565b5050565b610e8f848484610868565b610ea3610e9a6113d8565b85858585611a10565b50505050565b6060610eb482611319565b505f60065f8481526020019081526020015f208054610ed290612e1b565b80601f0160208091040260200160405190810160405280929190818152602001828054610efe90612e1b565b8015610f495780601f10610f2057610100808354040283529160200191610f49565b820191905f5260205f20905b815481529060010190602001808311610f2c57829003601f168201915b505050505090505f610f59611bbc565b90505f815103610f6d578192505050610faf565b5f82511115610fa1578082604051602001610f89929190612f47565b60405160208183030381529060405292505050610faf565b610faa84611bd2565b925050505b919050565b5f7f9f2df0fed2c77648de5860a4cc508cd0818c85b8b8a1ab4ceeef8d981c8956a6610fdf816115fc565b610fe7611c38565b5f83511161102a576040517f08c379a000000000000000000000000000000000000000000000000000000000815260040161102190612fb4565b60405180910390fd5b6110338361064e565b611072576040517f08c379a000000000000000000000000000000000000000000000000000000000815260040161106990613042565b60405180910390fd5b5f600954905060095f81548092919061108a90613060565b91905055506110998882611c79565b6110a38185611c96565b6040518060a001604052808973ffffffffffffffffffffffffffffffffffffffff16815260200188815260200142815260200186815260200187815250600a5f8381526020019081526020015f205f820151815f015f6101000a81548173ffffffffffffffffffffffffffffffffffffffff021916908373ffffffffffffffffffffffffffffffffffffffff16021790555060208201518160010155604082015181600201556060820151816003015560808201518160040190816111689190613247565b50905050868873ffffffffffffffffffffffffffffffffffffffff16827f37b9b6cbd1c8db89785356f8ab07861581d16f1c8d765d3cf08591c2158ce9ff88426040516111b6929190613316565b60405180910390a4809250505095945050505050565b7f9f2df0fed2c77648de5860a4cc508cd0818c85b8b8a1ab4ceeef8d981c8956a681565b6111f982610967565b611202816115fc565b61120c83836116fa565b50505050565b5f60055f8473ffffffffffffffffffffffffffffffffffffffff1673ffffffffffffffffffffffffffffffffffffffff1681526020019081526020015f205f8373ffffffffffffffffffffffffffffffffffffffff1673ffffffffffffffffffffffffffffffffffffffff1681526020019081526020015f205f9054906101000a900460ff16905092915050565b5f7f7965db0b000000000000000000000000000000000000000000000000000000007bffffffffffffffffffffffffffffffffffffffffffffffffffffffff1916827bffffffffffffffffffffffffffffffffffffffffffffffffffffffff19161480611312575061131182611cf0565b5b9050919050565b5f5f61132483611d50565b90505f73ffffffffffffffffffffffffffffffffffffffff168173ffffffffffffffffffffffffffffffffffffffff160361139657826040517f7e27328900000000000000000000000000000000000000000000000000000000815260040161138d9190612b62565b60405180910390fd5b80915050919050565b5f60045f8381526020019081526020015f205f9054906101000a900473ffffffffffffffffffffffffffffffffffffffff169050919050565b5f33905090565b6113ec8383836001611d89565b505050565b5f5f6113fc84611d50565b90505f73ffffffffffffffffffffffffffffffffffffffff168373ffffffffffffffffffffffffffffffffffffffff161461143d5761143c818486611f48565b5b5f73ffffffffffffffffffffffffffffffffffffffff168173ffffffffffffffffffffffffffffffffffffffff16146114c85761147c5f855f5f611d89565b600160035f8373ffffffffffffffffffffffffffffffffffffffff1673ffffffffffffffffffffffffffffffffffffffff1681526020019081526020015f205f82825403925050819055505b5f73ffffffffffffffffffffffffffffffffffffffff168573ffffffffffffffffffffffffffffffffffffffff161461154757600160035f8773ffffffffffffffffffffffffffffffffffffffff1673ffffffffffffffffffffffffffffffffffffffff1681526020019081526020015f205f82825401925050819055505b8460025f8681526020019081526020015f205f6101000a81548173ffffffffffffffffffffffffffffffffffffffff021916908373ffffffffffffffffffffffffffffffffffffffff160217905550838573ffffffffffffffffffffffffffffffffffffffff168273ffffffffffffffffffffffffffffffffffffffff167fddf252ad1be2c89b69c2b068fc378daa952ba7f163c4a11628f55a4df523b3ef60405160405180910390a4809150509392505050565b61160d816116086113d8565b61200b565b50565b5f61161b8383610d74565b6116f057600160075f8581526020019081526020015f205f015f8473ffffffffffffffffffffffffffffffffffffffff1673ffffffffffffffffffffffffffffffffffffffff1681526020019081526020015f205f6101000a81548160ff02191690831515021790555061168d6113d8565b73ffffffffffffffffffffffffffffffffffffffff168273ffffffffffffffffffffffffffffffffffffffff16847f2f8788117e7eff1d82e926ec794901d17c78024a50270940304540a733656f0d60405160405180910390a4600190506116f4565b5f90505b92915050565b5f6117058383610d74565b156117da575f60075f8581526020019081526020015f205f015f8473ffffffffffffffffffffffffffffffffffffffff1673ffffffffffffffffffffffffffffffffffffffff1681526020019081526020015f205f6101000a81548160ff0219169083151502179055506117776113d8565b73ffffffffffffffffffffffffffffffffffffffff168273ffffffffffffffffffffffffffffffffffffffff16847ff6391f5c32d9c69d2a47ea670b442974b53935d1edc7fd64eb21e047a839171b60405160405180910390a4600190506117de565b5f90505b92915050565b6117ec61205c565b5f60085f6101000a81548160ff0219169083151502179055507f5db9ee0a495bf2e6ff9c91a7834c1ba4fdd244a5e8aa4e537bd38aeae4b073aa61182e6113d8565b60405161183b91906127c8565b60405180910390a1565b61184d611c38565b600160085f6101000a81548160ff0219169083151502179055507f62e78cea01bee320cd4e420270b5ea74000d11b0c9f74754ebdbfc544b05a2586118906113d8565b60405161189d91906127c8565b60405180910390a1565b5f73ffffffffffffffffffffffffffffffffffffffff168273ffffffffffffffffffffffffffffffffffffffff160361191757816040517f5b08ba1800000000000000000000000000000000000000000000000000000000815260040161190e91906127c8565b60405180910390fd5b8060055f8573ffffffffffffffffffffffffffffffffffffffff1673ffffffffffffffffffffffffffffffffffffffff1681526020019081526020015f205f8473ffffffffffffffffffffffffffffffffffffffff1673ffffffffffffffffffffffffffffffffffffffff1681526020019081526020015f205f6101000a81548160ff0219169083151502179055508173ffffffffffffffffffffffffffffffffffffffff168373ffffffffffffffffffffffffffffffffffffffff167f17307eab39ab6107e8899845ad3d59bd9653f200f220920489ca2b5937696c3183604051611a039190612682565b60405180910390a3505050565b5f8373ffffffffffffffffffffffffffffffffffffffff163b1115611bb5578273ffffffffffffffffffffffffffffffffffffffff1663150b7a02868685856040518563ffffffff1660e01b8152600401611a6e949392919061338f565b6020604051808303815f875af1925050508015611aa957506040513d601f19601f82011682018060405250810190611aa691906133ed565b60015b611b2a573d805f8114611ad7576040519150601f19603f3d011682016040523d82523d5f602084013e611adc565b606091505b505f815103611b2257836040517f64a0ae92000000000000000000000000000000000000000000000000000000008152600401611b1991906127c8565b60405180910390fd5b805181602001fd5b63150b7a0260e01b7bffffffffffffffffffffffffffffffffffffffffffffffffffffffff1916817bffffffffffffffffffffffffffffffffffffffffffffffffffffffff191614611bb357836040517f64a0ae92000000000000000000000000000000000000000000000000000000008152600401611baa91906127c8565b60405180910390fd5b505b5050505050565b606060405180602001604052805f815250905090565b6060611bdd82611319565b505f611be7611bbc565b90505f815111611c055760405180602001604052805f815250611c30565b80611c0f8461209c565b604051602001611c20929190612f47565b6040516020818303038152906040525b915050919050565b611c40610baa565b15611c77576040517fd93c066500000000000000000000000000000000000000000000000000000000815260040160405180910390fd5b565b611c92828260405180602001604052805f815250612166565b5050565b8060065f8481526020019081526020015f209081611cb49190613247565b507ff8e1a15aba9398e019f0b49df1a4fde98ee17ae345cb5f6b5e2c27f5033e8ce782604051611ce49190612b62565b60405180910390a15050565b5f634906490660e01b7bffffffffffffffffffffffffffffffffffffffffffffffffffffffff1916827bffffffffffffffffffffffffffffffffffffffffffffffffffffffff19161480611d495750611d4882612189565b5b9050919050565b5f60025f8381526020019081526020015f205f9054906101000a900473ffffffffffffffffffffffffffffffffffffffff169050919050565b8080611dc157505f73ffffffffffffffffffffffffffffffffffffffff168273ffffffffffffffffffffffffffffffffffffffff1614155b15611ef3575f611dd084611319565b90505f73ffffffffffffffffffffffffffffffffffffffff168373ffffffffffffffffffffffffffffffffffffffff1614158015611e3a57508273ffffffffffffffffffffffffffffffffffffffff168173ffffffffffffffffffffffffffffffffffffffff1614155b8015611e4d5750611e4b8184611212565b155b15611e8f57826040517fa9fbf51f000000000000000000000000000000000000000000000000000000008152600401611e8691906127c8565b60405180910390fd5b8115611ef157838573ffffffffffffffffffffffffffffffffffffffff168273ffffffffffffffffffffffffffffffffffffffff167f8c5be1e5ebec7d5bd14f71427d1e84f3dd0314c0f7b2291e5b200ac8c7c3b92560405160405180910390a45b505b8360045f8581526020019081526020015f205f6101000a81548173ffffffffffffffffffffffffffffffffffffffff021916908373ffffffffffffffffffffffffffffffffffffffff16021790555050505050565b611f5383838361226a565b612006575f73ffffffffffffffffffffffffffffffffffffffff168373ffffffffffffffffffffffffffffffffffffffff1603611fc757806040517f7e273289000000000000000000000000000000000000000000000000000000008152600401611fbe9190612b62565b60405180910390fd5b81816040517f177e802f000000000000000000000000000000000000000000000000000000008152600401611ffd929190613418565b60405180910390fd5b505050565b6120158282610d74565b6120585780826040517fe2517d3f00000000000000000000000000000000000000000000000000000000815260040161204f92919061343f565b60405180910390fd5b5050565b612064610baa565b61209a576040517f8dfc202b00000000000000000000000000000000000000000000000000000000815260040160405180910390fd5b565b60605f60016120aa8461232a565b0190505f8167ffffffffffffffff8111156120c8576120c7612851565b5b6040519080825280601f01601f1916602001820160405280156120fa5781602001600182028036833780820191505090505b5090505f82602001820190505b60011561215b578080600190039150507f3031323334353637383961626364656600000000000000000000000000000000600a86061a8153600a85816121505761214f613466565b5b0494505f8503612107575b819350505050919050565b612170838361247b565b61218461217b6113d8565b5f858585611a10565b505050565b5f7f80ac58cd000000000000000000000000000000000000000000000000000000007bffffffffffffffffffffffffffffffffffffffffffffffffffffffff1916827bffffffffffffffffffffffffffffffffffffffffffffffffffffffff1916148061225357507f5b5e139f000000000000000000000000000000000000000000000000000000007bffffffffffffffffffffffffffffffffffffffffffffffffffffffff1916827bffffffffffffffffffffffffffffffffffffffffffffffffffffffff1916145b8061226357506122628261256e565b5b9050919050565b5f5f73ffffffffffffffffffffffffffffffffffffffff168373ffffffffffffffffffffffffffffffffffffffff161415801561232157508273ffffffffffffffffffffffffffffffffffffffff168473ffffffffffffffffffffffffffffffffffffffff1614806122e257506122e18484611212565b5b8061232057508273ffffffffffffffffffffffffffffffffffffffff166123088361139f565b73ffffffffffffffffffffffffffffffffffffffff16145b5b90509392505050565b5f5f5f90507a184f03e93ff9f4daa797ed6e38ed64bf6a1f0100000000000000008310612386577a184f03e93ff9f4daa797ed6e38ed64bf6a1f010000000000000000838161237c5761237b613466565b5b0492506040810190505b6d04ee2d6d415b85acef810000000083106123c3576d04ee2d6d415b85acef810000000083816123b9576123b8613466565b5b0492506020810190505b662386f26fc1000083106123f257662386f26fc1000083816123e8576123e7613466565b5b0492506010810190505b6305f5e100831061241b576305f5e100838161241157612410613466565b5b0492506008810190505b612710831061244057612710838161243657612435613466565b5b0492506004810190505b60648310612463576064838161245957612458613466565b5b0492506002810190505b600a8310612472576001810190505b80915050919050565b5f73ffffffffffffffffffffffffffffffffffffffff168273ffffffffffffffffffffffffffffffffffffffff16036124eb575f6040517f64a0ae920000000000000000000000000000000000000000000000000000000081526004016124e291906127c8565b60405180910390fd5b5f6124f783835f6113f1565b90505f73ffffffffffffffffffffffffffffffffffffffff168173ffffffffffffffffffffffffffffffffffffffff1614612569575f6040517f73c6ac6e00000000000000000000000000000000000000000000000000000000815260040161256091906127c8565b60405180910390fd5b505050565b5f7f01ffc9a7000000000000000000000000000000000000000000000000000000007bffffffffffffffffffffffffffffffffffffffffffffffffffffffff1916827bffffffffffffffffffffffffffffffffffffffffffffffffffffffff1916149050919050565b5f604051905090565b5f5ffd5b5f5ffd5b5f7fffffffff0000000000000000000000000000000000000000000000000000000082169050919050565b61261c816125e8565b8114612626575f5ffd5b50565b5f8135905061263781612613565b92915050565b5f60208284031215612652576126516125e0565b5b5f61265f84828501612629565b91505092915050565b5f8115159050919050565b61267c81612668565b82525050565b5f6020820190506126955f830184612673565b92915050565b5f81519050919050565b5f82825260208201905092915050565b8281835e5f83830152505050565b5f601f19601f8301169050919050565b5f6126dd8261269b565b6126e781856126a5565b93506126f78185602086016126b5565b612700816126c3565b840191505092915050565b5f6020820190508181035f83015261272381846126d3565b905092915050565b5f819050919050565b61273d8161272b565b8114612747575f5ffd5b50565b5f8135905061275881612734565b92915050565b5f60208284031215612773576127726125e0565b5b5f6127808482850161274a565b91505092915050565b5f73ffffffffffffffffffffffffffffffffffffffff82169050919050565b5f6127b282612789565b9050919050565b6127c2816127a8565b82525050565b5f6020820190506127db5f8301846127b9565b92915050565b6127ea816127a8565b81146127f4575f5ffd5b50565b5f81359050612805816127e1565b92915050565b5f5f60408385031215612821576128206125e0565b5b5f61282e858286016127f7565b925050602061283f8582860161274a565b9150509250929050565b5f5ffd5b5f5ffd5b7f4e487b71000000000000000000000000000000000000000000000000000000005f52604160045260245ffd5b612887826126c3565b810181811067ffffffffffffffff821117156128a6576128a5612851565b5b80604052505050565b5f6128b86125d7565b90506128c4828261287e565b919050565b5f67ffffffffffffffff8211156128e3576128e2612851565b5b6128ec826126c3565b9050602081019050919050565b828183375f83830152505050565b5f612919612914846128c9565b6128af565b9050828152602081018484840111156129355761293461284d565b5b6129408482856128f9565b509392505050565b5f82601f83011261295c5761295b612849565b5b813561296c848260208601612907565b91505092915050565b5f6020828403121561298a576129896125e0565b5b5f82013567ffffffffffffffff8111156129a7576129a66125e4565b5b6129b384828501612948565b91505092915050565b5f5f5f606084860312156129d3576129d26125e0565b5b5f6129e0868287016127f7565b93505060206129f1868287016127f7565b9250506040612a028682870161274a565b9150509250925092565b5f819050919050565b612a1e81612a0c565b8114612a28575f5ffd5b50565b5f81359050612a3981612a15565b92915050565b5f60208284031215612a5457612a536125e0565b5b5f612a6184828501612a2b565b91505092915050565b612a7381612a0c565b82525050565b5f602082019050612a8c5f830184612a6a565b92915050565b5f5f60408385031215612aa857612aa76125e0565b5b5f612ab585828601612a2b565b9250506020612ac6858286016127f7565b9150509250929050565b612ad98161272b565b82525050565b5f60a082019050612af25f8301886127b9565b612aff6020830187612ad0565b612b0c6040830186612ad0565b612b196060830185612ad0565b8181036080830152612b2b81846126d3565b90509695505050505050565b5f60208284031215612b4c57612b4b6125e0565b5b5f612b59848285016127f7565b91505092915050565b5f602082019050612b755f830184612ad0565b92915050565b612b8481612668565b8114612b8e575f5ffd5b50565b5f81359050612b9f81612b7b565b92915050565b5f5f60408385031215612bbb57612bba6125e0565b5b5f612bc8858286016127f7565b9250506020612bd985828601612b91565b9150509250929050565b5f67ffffffffffffffff821115612bfd57612bfc612851565b5b612c06826126c3565b9050602081019050919050565b5f612c25612c2084612be3565b6128af565b905082815260208101848484011115612c4157612c4061284d565b5b612c4c8482856128f9565b509392505050565b5f82601f830112612c6857612c67612849565b5b8135612c78848260208601612c13565b91505092915050565b5f5f5f5f60808587031215612c9957612c986125e0565b5b5f612ca6878288016127f7565b9450506020612cb7878288016127f7565b9350506040612cc88782880161274a565b925050606085013567ffffffffffffffff811115612ce957612ce86125e4565b5b612cf587828801612c54565b91505092959194509250565b5f5f5f5f5f60a08688031215612d1a57612d196125e0565b5b5f612d27888289016127f7565b9550506020612d388882890161274a565b945050604086013567ffffffffffffffff811115612d5957612d586125e4565b5b612d6588828901612948565b9350506060612d768882890161274a565b925050608086013567ffffffffffffffff811115612d9757612d966125e4565b5b612da388828901612948565b9150509295509295909350565b5f5f60408385031215612dc657612dc56125e0565b5b5f612dd3858286016127f7565b9250506020612de4858286016127f7565b9150509250929050565b7f4e487b71000000000000000000000000000000000000000000000000000000005f52602260045260245ffd5b5f6002820490506001821680612e3257607f821691505b602082108103612e4557612e44612dee565b5b50919050565b7f4e487b71000000000000000000000000000000000000000000000000000000005f52603260045260245ffd5b7f4e487b71000000000000000000000000000000000000000000000000000000005f52601160045260245ffd5b5f612eaf8261272b565b9150612eba8361272b565b9250828203905081811115612ed257612ed1612e78565b5b92915050565b5f606082019050612eeb5f8301866127b9565b612ef86020830185612ad0565b612f0560408301846127b9565b949350505050565b5f81905092915050565b5f612f218261269b565b612f2b8185612f0d565b9350612f3b8185602086016126b5565b80840191505092915050565b5f612f528285612f17565b9150612f5e8284612f17565b91508190509392505050565b7f4d65746164617461205552492063616e6e6f7420626520656d707479000000005f82015250565b5f612f9e601c836126a5565b9150612fa982612f6a565b602082019050919050565b5f6020820190508181035f830152612fcb81612f92565b9050919050565b7f4d6574616461746120555249206d75737420706f696e7420746f2049504653205f8201527f6f72204172776561766500000000000000000000000000000000000000000000602082015250565b5f61302c602a836126a5565b915061303782612fd2565b604082019050919050565b5f6020820190508181035f83015261305981613020565b9050919050565b5f61306a8261272b565b91507fffffffffffffffffffffffffffffffffffffffffffffffffffffffffffffffff820361309c5761309b612e78565b5b600182019050919050565b5f819050815f5260205f209050919050565b5f6020601f8301049050919050565b5f82821b905092915050565b5f600883026131037fffffffffffffffffffffffffffffffffffffffffffffffffffffffffffffffff826130c8565b61310d86836130c8565b95508019841693508086168417925050509392505050565b5f819050919050565b5f61314861314361313e8461272b565b613125565b61272b565b9050919050565b5f819050919050565b6131618361312e565b61317561316d8261314f565b8484546130d4565b825550505050565b5f5f905090565b61318c61317d565b613197818484613158565b505050565b5b818110156131ba576131af5f82613184565b60018101905061319d565b5050565b601f8211156131ff576131d0816130a7565b6131d9846130b9565b810160208510156131e8578190505b6131fc6131f4856130b9565b83018261319c565b50505b505050565b5f82821c905092915050565b5f61321f5f1984600802613204565b1980831691505092915050565b5f6132378383613210565b9150826002028217905092915050565b6132508261269b565b67ffffffffffffffff81111561326957613268612851565b5b6132738254612e1b565b61327e8282856131be565b5f60209050601f8311600181146132af575f841561329d578287015190505b6132a7858261322c565b86555061330e565b601f1984166132bd866130a7565b5f5b828110156132e4578489015182556001820191506020850194506020810190506132bf565b8683101561330157848901516132fd601f891682613210565b8355505b6001600288020188555050505b505050505050565b5f6040820190506133295f830185612ad0565b6133366020830184612ad0565b9392505050565b5f81519050919050565b5f82825260208201905092915050565b5f6133618261333d565b61336b8185613347565b935061337b8185602086016126b5565b613384816126c3565b840191505092915050565b5f6080820190506133a25f8301876127b9565b6133af60208301866127b9565b6133bc6040830185612ad0565b81810360608301526133ce8184613357565b905095945050505050565b5f815190506133e781612613565b92915050565b5f60208284031215613402576134016125e0565b5b5f61340f848285016133d9565b91505092915050565b5f60408201905061342b5f8301856127b9565b6134386020830184612ad0565b9392505050565b5f6040820190506134525f8301856127b9565b61345f6020830184612a6a565b9392505050565b7f4e487b71000000000000000000000000000000000000000000000000000000005f52601260045260245ffdfea264697066735822122022ff99d7313da0274de69d0988d8023b8e49a6d1efd46012cfaa82f6e7e464c764736f6c634300081c0033","linkReferences":{}},"methodIdentifiers":{"DEFAULT_ADMIN_ROLE()":"a217fddf","MINTER_ROLE()":"d5391393","approve(address,uint256)":"095ea7b3","balanceOf(address)":"70a08231","certificates(uint256)":"663b3e22","getApproved(uint256)":"081812fc","getCertificateData(uint256)":"31494bbb","getRoleAdmin(bytes32)":"248a9ca3","grantRole(bytes32,address)":"2f2ff15d","hasRole(bytes32,address)":"91d14854","isApprovedForAll(address,address)":"e985e9c5","isValidDecentralizedURI(string)":"20fd9a71","mintCertificate(address,uint256,string,uint256,string)":"ca78add6","name()":"06fdde03","ownerOf(uint256)":"6352211e","pause()":"8456cb59","paused()":"5c975abb","renounceRole(bytes32,address)":"36568abe","revokeRole(bytes32,address)":"d547741f","safeTransferFrom(address,address,uint256)":"42842e0e","safeTransferFrom(address,address,uint256,bytes)":"b88d4fde","setApprovalForAll(address,bool)":"a22cb465","supportsInterface(bytes4)":"01ffc9a7","symbol()":"95d89b41","tokenURI(uint256)":"c87b56dd","transferFrom(address,address,uint256)":"23b872dd","unpause()":"3f4ba83a"},"id":44}